{
  "contractName": "EcommerceStore",
  "abi": [
    {
      "inputs": [],
      "stateMutability": "nonpayable",
      "type": "constructor"
    },
    {
      "anonymous": false,
      "inputs": [
        {
          "indexed": true,
          "internalType": "uint256",
          "name": "orderId",
          "type": "uint256"
        },
        {
          "indexed": true,
          "internalType": "uint256",
          "name": "productId",
          "type": "uint256"
        },
        {
          "indexed": true,
          "internalType": "address",
          "name": "buyer",
          "type": "address"
        },
        {
          "indexed": false,
          "internalType": "uint256",
          "name": "quantity",
          "type": "uint256"
        }
      ],
      "name": "OrderCreated",
      "type": "event"
    },
    {
      "anonymous": false,
      "inputs": [
        {
          "indexed": true,
          "internalType": "uint256",
          "name": "orderId",
          "type": "uint256"
        },
        {
          "indexed": false,
          "internalType": "enum EcommerceStore.OrderStatus",
          "name": "status",
          "type": "uint8"
        }
      ],
      "name": "OrderStatusUpdated",
      "type": "event"
    },
    {
      "anonymous": false,
      "inputs": [
        {
          "indexed": true,
          "internalType": "address",
          "name": "from",
          "type": "address"
        },
        {
          "indexed": false,
          "internalType": "uint256",
          "name": "amount",
          "type": "uint256"
        }
      ],
      "name": "PaymentReceived",
      "type": "event"
    },
    {
      "anonymous": false,
      "inputs": [
        {
          "indexed": true,
          "internalType": "uint256",
          "name": "productId",
          "type": "uint256"
        },
        {
          "indexed": false,
          "internalType": "string",
          "name": "name",
          "type": "string"
        },
        {
          "indexed": false,
          "internalType": "uint256",
          "name": "price",
          "type": "uint256"
        },
        {
          "indexed": true,
          "internalType": "address",
          "name": "seller",
          "type": "address"
        }
      ],
      "name": "ProductAdded",
      "type": "event"
    },
    {
      "anonymous": false,
      "inputs": [
        {
          "indexed": true,
          "internalType": "uint256",
          "name": "productId",
          "type": "uint256"
        },
        {
          "indexed": false,
          "internalType": "string",
          "name": "name",
          "type": "string"
        },
        {
          "indexed": false,
          "internalType": "uint256",
          "name": "price",
          "type": "uint256"
        }
      ],
      "name": "ProductUpdated",
      "type": "event"
    },
    {
      "anonymous": false,
      "inputs": [
        {
          "indexed": true,
          "internalType": "address",
          "name": "userAddress",
          "type": "address"
        },
        {
          "indexed": false,
          "internalType": "string",
          "name": "name",
          "type": "string"
        },
        {
          "indexed": false,
          "internalType": "enum EcommerceStore.UserRole",
          "name": "role",
          "type": "uint8"
        }
      ],
      "name": "UserRegistered",
      "type": "event"
    },
    {
      "inputs": [],
      "name": "admin",
      "outputs": [
        {
          "internalType": "address",
          "name": "",
          "type": "address"
        }
      ],
      "stateMutability": "view",
      "type": "function",
      "constant": true
    },
    {
      "inputs": [],
      "name": "orderCounter",
      "outputs": [
        {
          "internalType": "uint256",
          "name": "",
          "type": "uint256"
        }
      ],
      "stateMutability": "view",
      "type": "function",
      "constant": true
    },
    {
      "inputs": [
        {
          "internalType": "uint256",
          "name": "",
          "type": "uint256"
        }
      ],
      "name": "orders",
      "outputs": [
        {
          "internalType": "uint256",
          "name": "id",
          "type": "uint256"
        },
        {
          "internalType": "uint256",
          "name": "productId",
          "type": "uint256"
        },
        {
          "internalType": "address",
          "name": "buyer",
          "type": "address"
        },
        {
          "internalType": "address",
          "name": "seller",
          "type": "address"
        },
        {
          "internalType": "uint256",
          "name": "quantity",
          "type": "uint256"
        },
        {
          "internalType": "uint256",
          "name": "totalPrice",
          "type": "uint256"
        },
        {
          "internalType": "enum EcommerceStore.OrderStatus",
          "name": "status",
          "type": "uint8"
        },
        {
          "internalType": "uint256",
          "name": "timestamp",
          "type": "uint256"
        }
      ],
      "stateMutability": "view",
      "type": "function",
      "constant": true
    },
    {
      "inputs": [],
      "name": "productCounter",
      "outputs": [
        {
          "internalType": "uint256",
          "name": "",
          "type": "uint256"
        }
      ],
      "stateMutability": "view",
      "type": "function",
      "constant": true
    },
    {
      "inputs": [
        {
          "internalType": "uint256",
          "name": "",
          "type": "uint256"
        }
      ],
      "name": "products",
      "outputs": [
        {
          "internalType": "uint256",
          "name": "id",
          "type": "uint256"
        },
        {
          "internalType": "string",
          "name": "name",
          "type": "string"
        },
        {
          "internalType": "string",
          "name": "description",
          "type": "string"
        },
        {
          "internalType": "uint256",
          "name": "price",
          "type": "uint256"
        },
        {
          "internalType": "uint256",
          "name": "stock",
          "type": "uint256"
        },
        {
          "internalType": "address payable",
          "name": "seller",
          "type": "address"
        },
        {
          "internalType": "bool",
          "name": "isActive",
          "type": "bool"
        },
        {
          "internalType": "string",
          "name": "imageUrl",
          "type": "string"
        }
      ],
      "stateMutability": "view",
      "type": "function",
      "constant": true
    },
    {
      "inputs": [
        {
          "internalType": "address",
          "name": "",
          "type": "address"
        },
        {
          "internalType": "uint256",
          "name": "",
          "type": "uint256"
        }
      ],
      "name": "sellerProducts",
      "outputs": [
        {
          "internalType": "uint256",
          "name": "",
          "type": "uint256"
        }
      ],
      "stateMutability": "view",
      "type": "function",
      "constant": true
    },
    {
      "inputs": [
        {
          "internalType": "address",
          "name": "",
          "type": "address"
        },
        {
          "internalType": "uint256",
          "name": "",
          "type": "uint256"
        }
      ],
      "name": "userOrders",
      "outputs": [
        {
          "internalType": "uint256",
          "name": "",
          "type": "uint256"
        }
      ],
      "stateMutability": "view",
      "type": "function",
      "constant": true
    },
    {
      "inputs": [
        {
          "internalType": "address",
          "name": "",
          "type": "address"
        }
      ],
      "name": "users",
      "outputs": [
        {
          "internalType": "address",
          "name": "userAddress",
          "type": "address"
        },
        {
          "internalType": "string",
          "name": "name",
          "type": "string"
        },
        {
          "internalType": "enum EcommerceStore.UserRole",
          "name": "role",
          "type": "uint8"
        },
        {
          "internalType": "bool",
          "name": "isRegistered",
          "type": "bool"
        }
      ],
      "stateMutability": "view",
      "type": "function",
      "constant": true
    },
    {
      "inputs": [
        {
          "internalType": "string",
          "name": "_name",
          "type": "string"
        },
        {
          "internalType": "enum EcommerceStore.UserRole",
          "name": "_role",
          "type": "uint8"
        }
      ],
      "name": "registerUser",
      "outputs": [],
      "stateMutability": "nonpayable",
      "type": "function"
    },
    {
      "inputs": [
        {
          "internalType": "address",
          "name": "_userAddress",
          "type": "address"
        }
      ],
      "name": "getUser",
      "outputs": [
        {
          "components": [
            {
              "internalType": "address",
              "name": "userAddress",
              "type": "address"
            },
            {
              "internalType": "string",
              "name": "name",
              "type": "string"
            },
            {
              "internalType": "enum EcommerceStore.UserRole",
              "name": "role",
              "type": "uint8"
            },
            {
              "internalType": "bool",
              "name": "isRegistered",
              "type": "bool"
            }
          ],
          "internalType": "struct EcommerceStore.User",
          "name": "",
          "type": "tuple"
        }
      ],
      "stateMutability": "view",
      "type": "function",
      "constant": true
    },
    {
      "inputs": [
        {
          "internalType": "string",
          "name": "_name",
          "type": "string"
        },
        {
          "internalType": "string",
          "name": "_description",
          "type": "string"
        },
        {
          "internalType": "uint256",
          "name": "_price",
          "type": "uint256"
        },
        {
          "internalType": "uint256",
          "name": "_stock",
          "type": "uint256"
        },
        {
          "internalType": "string",
          "name": "_imageUrl",
          "type": "string"
        }
      ],
      "name": "addProduct",
      "outputs": [],
      "stateMutability": "nonpayable",
      "type": "function"
    },
    {
      "inputs": [
        {
          "internalType": "uint256",
          "name": "_productId",
          "type": "uint256"
        },
        {
          "internalType": "string",
          "name": "_name",
          "type": "string"
        },
        {
          "internalType": "string",
          "name": "_description",
          "type": "string"
        },
        {
          "internalType": "uint256",
          "name": "_price",
          "type": "uint256"
        },
        {
          "internalType": "uint256",
          "name": "_stock",
          "type": "uint256"
        },
        {
          "internalType": "string",
          "name": "_imageUrl",
          "type": "string"
        }
      ],
      "name": "updateProduct",
      "outputs": [],
      "stateMutability": "nonpayable",
      "type": "function"
    },
    {
      "inputs": [
        {
          "internalType": "uint256",
          "name": "_productId",
          "type": "uint256"
        }
      ],
      "name": "toggleProductStatus",
      "outputs": [],
      "stateMutability": "nonpayable",
      "type": "function"
    },
    {
      "inputs": [
        {
          "internalType": "uint256",
          "name": "_productId",
          "type": "uint256"
        }
      ],
      "name": "getProduct",
      "outputs": [
        {
          "components": [
            {
              "internalType": "uint256",
              "name": "id",
              "type": "uint256"
            },
            {
              "internalType": "string",
              "name": "name",
              "type": "string"
            },
            {
              "internalType": "string",
              "name": "description",
              "type": "string"
            },
            {
              "internalType": "uint256",
              "name": "price",
              "type": "uint256"
            },
            {
              "internalType": "uint256",
              "name": "stock",
              "type": "uint256"
            },
            {
              "internalType": "address payable",
              "name": "seller",
              "type": "address"
            },
            {
              "internalType": "bool",
              "name": "isActive",
              "type": "bool"
            },
            {
              "internalType": "string",
              "name": "imageUrl",
              "type": "string"
            }
          ],
          "internalType": "struct EcommerceStore.Product",
          "name": "",
          "type": "tuple"
        }
      ],
      "stateMutability": "view",
      "type": "function",
      "constant": true
    },
    {
      "inputs": [],
      "name": "getAllProducts",
      "outputs": [
        {
          "components": [
            {
              "internalType": "uint256",
              "name": "id",
              "type": "uint256"
            },
            {
              "internalType": "string",
              "name": "name",
              "type": "string"
            },
            {
              "internalType": "string",
              "name": "description",
              "type": "string"
            },
            {
              "internalType": "uint256",
              "name": "price",
              "type": "uint256"
            },
            {
              "internalType": "uint256",
              "name": "stock",
              "type": "uint256"
            },
            {
              "internalType": "address payable",
              "name": "seller",
              "type": "address"
            },
            {
              "internalType": "bool",
              "name": "isActive",
              "type": "bool"
            },
            {
              "internalType": "string",
              "name": "imageUrl",
              "type": "string"
            }
          ],
          "internalType": "struct EcommerceStore.Product[]",
          "name": "",
          "type": "tuple[]"
        }
      ],
      "stateMutability": "view",
      "type": "function",
      "constant": true
    },
    {
      "inputs": [
        {
          "internalType": "address",
          "name": "_seller",
          "type": "address"
        }
      ],
      "name": "getSellerProducts",
      "outputs": [
        {
          "internalType": "uint256[]",
          "name": "",
          "type": "uint256[]"
        }
      ],
      "stateMutability": "view",
      "type": "function",
      "constant": true
    },
    {
      "inputs": [
        {
          "internalType": "uint256",
          "name": "_productId",
          "type": "uint256"
        },
        {
          "internalType": "uint256",
          "name": "_quantity",
          "type": "uint256"
        }
      ],
      "name": "createOrder",
      "outputs": [],
      "stateMutability": "payable",
      "type": "function",
      "payable": true
    },
    {
      "inputs": [
        {
          "internalType": "uint256",
          "name": "_orderId",
          "type": "uint256"
        },
        {
          "internalType": "enum EcommerceStore.OrderStatus",
          "name": "_status",
          "type": "uint8"
        }
      ],
      "name": "updateOrderStatus",
      "outputs": [],
      "stateMutability": "nonpayable",
      "type": "function"
    },
    {
      "inputs": [
        {
          "internalType": "uint256",
          "name": "_orderId",
          "type": "uint256"
        }
      ],
      "name": "getOrder",
      "outputs": [
        {
          "components": [
            {
              "internalType": "uint256",
              "name": "id",
              "type": "uint256"
            },
            {
              "internalType": "uint256",
              "name": "productId",
              "type": "uint256"
            },
            {
              "internalType": "address",
              "name": "buyer",
              "type": "address"
            },
            {
              "internalType": "address",
              "name": "seller",
              "type": "address"
            },
            {
              "internalType": "uint256",
              "name": "quantity",
              "type": "uint256"
            },
            {
              "internalType": "uint256",
              "name": "totalPrice",
              "type": "uint256"
            },
            {
              "internalType": "enum EcommerceStore.OrderStatus",
              "name": "status",
              "type": "uint8"
            },
            {
              "internalType": "uint256",
              "name": "timestamp",
              "type": "uint256"
            }
          ],
          "internalType": "struct EcommerceStore.Order",
          "name": "",
          "type": "tuple"
        }
      ],
      "stateMutability": "view",
      "type": "function",
      "constant": true
    },
    {
      "inputs": [
        {
          "internalType": "address",
          "name": "_user",
          "type": "address"
        }
      ],
      "name": "getUserOrders",
      "outputs": [
        {
          "internalType": "uint256[]",
          "name": "",
          "type": "uint256[]"
        }
      ],
      "stateMutability": "view",
      "type": "function",
      "constant": true
    },
    {
      "inputs": [],
      "name": "getAllOrders",
      "outputs": [
        {
          "components": [
            {
              "internalType": "uint256",
              "name": "id",
              "type": "uint256"
            },
            {
              "internalType": "uint256",
              "name": "productId",
              "type": "uint256"
            },
            {
              "internalType": "address",
              "name": "buyer",
              "type": "address"
            },
            {
              "internalType": "address",
              "name": "seller",
              "type": "address"
            },
            {
              "internalType": "uint256",
              "name": "quantity",
              "type": "uint256"
            },
            {
              "internalType": "uint256",
              "name": "totalPrice",
              "type": "uint256"
            },
            {
              "internalType": "enum EcommerceStore.OrderStatus",
              "name": "status",
              "type": "uint8"
            },
            {
              "internalType": "uint256",
              "name": "timestamp",
              "type": "uint256"
            }
          ],
          "internalType": "struct EcommerceStore.Order[]",
          "name": "",
          "type": "tuple[]"
        }
      ],
      "stateMutability": "view",
      "type": "function",
      "constant": true
    },
    {
      "inputs": [],
      "name": "getTotalProducts",
      "outputs": [
        {
          "internalType": "uint256",
          "name": "",
          "type": "uint256"
        }
      ],
      "stateMutability": "view",
      "type": "function",
      "constant": true
    },
    {
      "inputs": [],
      "name": "getTotalOrders",
      "outputs": [
        {
          "internalType": "uint256",
          "name": "",
          "type": "uint256"
        }
      ],
      "stateMutability": "view",
      "type": "function",
      "constant": true
    }
  ],
  "bytecode": "0x60806040523480156200001157600080fd5b5060008054336001600160a01b0319918216811783556040805160808101825282815281518083018352600581526420b236b4b760d91b6020808301919091528083019182526002838501526001606084018190529487526003905291909420845181546001600160a01b0391909116941693909317835551908201906200009a908262000335565b5060408201518160020160006101000a81548160ff02191690836002811115620000c857620000c86200027a565b021790555060609190910151600290910180549115156101000261ff001990921691909117905560018054906000620001018362000401565b909155505060408051610100810182526001805480835283518085018552601081526f2634bb393290213637b1b5b1b430b4b760811b60208281019190915280850191825285518087018752601281527141707072656e64726520536f6c696469747960701b818301528587015267016345785d8a0000606086015260646080860152600080546001600160a01b031660a087015260c0860185905286518088018852601f81527f68747470733a2f2f7669612e706c616365686f6c6465722e636f6d2f313530008184015260e08701529283526004905293902082518155925191929190820190620001f5908262000335565b50604082015160028201906200020c908262000335565b50606082015160038201556080820151600482015560a082015160058201805460c08501511515600160a01b026001600160a81b03199091166001600160a01b039093169290921791909117905560e0820151600682019062000270908262000335565b5090505062000429565b634e487b7160e01b600052602160045260246000fd5b634e487b7160e01b600052604160045260246000fd5b600181811c90821680620002bb57607f821691505b602082108103620002dc57634e487b7160e01b600052602260045260246000fd5b50919050565b601f8211156200033057600081815260208120601f850160051c810160208610156200030b5750805b601f850160051c820191505b818110156200032c5782815560010162000317565b5050505b505050565b81516001600160401b0381111562000351576200035162000290565b6200036981620003628454620002a6565b84620002e2565b602080601f831160018114620003a15760008415620003885750858301515b600019600386901b1c1916600185901b1785556200032c565b600085815260208120601f198616915b82811015620003d257888601518255948401946001909101908401620003b1565b5085821015620003f15787850151600019600388901b60f8161c191681555b5050505050600190811b01905550565b6000600182016200042257634e487b7160e01b600052601160045260246000fd5b5060010190565b61264b80620004396000396000f3fe6080604052600436106101405760003560e01c80637bea0d1c116100b6578063b9db15b41161006f578063b9db15b4146103ed578063c1302b341461041a578063c36ae7661461043a578063d09ef2411461045a578063e6a93e1614610487578063f851a440146104a757600080fd5b80637bea0d1c146102c1578063856652e9146102e3578063a85c38ef14610303578063a87430ba14610387578063aab3196d146103b7578063b789bf52146103d757600080fd5b8063570aea8a11610108578063570aea8a146101eb57806363c69f08146102005780636daf0fbb1461022d5780636f77926b1461024d57806379109baa1461027a5780637acc0b201461028d57600080fd5b806302ee3a52146101455780631f16653b14610170578063338e12eb14610194578063375f16a7146101b65780634da47d37146101cb575b600080fd5b34801561015157600080fd5b5061015a6104df565b6040516101679190611df8565b60405180910390f35b34801561017c57600080fd5b5061018660015481565b604051908152602001610167565b3480156101a057600080fd5b506101b46101af366004611efd565b6107a4565b005b3480156101c257600080fd5b50600254610186565b3480156101d757600080fd5b506101b46101e6366004611f53565b61097e565b3480156101f757600080fd5b50600154610186565b34801561020c57600080fd5b5061022061021b366004612013565b610ab6565b6040516101679190612035565b34801561023957600080fd5b506101b4610248366004612079565b610b22565b34801561025957600080fd5b5061026d610268366004612013565b610e35565b604051610167919061213f565b6101b4610288366004612198565b610f73565b34801561029957600080fd5b506102ad6102a83660046121ba565b611355565b6040516101679897969594939291906121d3565b3480156102cd57600080fd5b506102d6611541565b60405161016791906122bb565b3480156102ef57600080fd5b506101866102fe3660046122fe565b611685565b34801561030f57600080fd5b5061037361031e3660046121ba565b600560208190526000918252604090912080546001820154600283015460038401546004850154958501546006860154600790960154949693956001600160a01b0393841695939092169392909160ff169088565b604051610167989796959493929190612328565b34801561039357600080fd5b506103a76103a2366004612013565b6116b6565b604051610167949392919061237c565b3480156103c357600080fd5b506101b46103d23660046123c0565b611777565b3480156103e357600080fd5b5061018660025481565b3480156103f957600080fd5b5061040d6104083660046121ba565b61186e565b60405161016791906123e9565b34801561042657600080fd5b506101866104353660046122fe565b611a99565b34801561044657600080fd5b506101b46104553660046121ba565b611ab5565b34801561046657600080fd5b5061047a6104753660046121ba565b611b48565b60405161016791906123fc565b34801561049357600080fd5b506102206104a2366004612013565b611bf9565b3480156104b357600080fd5b506000546104c7906001600160a01b031681565b6040516001600160a01b039091168152602001610167565b6060600060015467ffffffffffffffff8111156104fe576104fe611e5a565b60405190808252806020026020018201604052801561053757816020015b610524611c63565b81526020019060019003908161051c5790505b50905060015b600154811161079e5760046000828152602001908152602001600020604051806101000160405290816000820154815260200160018201805461057f90612411565b80601f01602080910402602001604051908101604052809291908181526020018280546105ab90612411565b80156105f85780601f106105cd576101008083540402835291602001916105f8565b820191906000526020600020905b8154815290600101906020018083116105db57829003601f168201915b5050505050815260200160028201805461061190612411565b80601f016020809104026020016040519081016040528092919081815260200182805461063d90612411565b801561068a5780601f1061065f5761010080835404028352916020019161068a565b820191906000526020600020905b81548152906001019060200180831161066d57829003601f168201915b5050509183525050600382015460208201526004820154604082015260058201546001600160a01b0381166060830152600160a01b900460ff161515608082015260068201805460a0909201916106e090612411565b80601f016020809104026020016040519081016040528092919081815260200182805461070c90612411565b80156107595780601f1061072e57610100808354040283529160200191610759565b820191906000526020600020905b81548152906001019060200180831161073c57829003601f168201915b50505050508152505082600183610770919061245b565b815181106107805761078061246e565b6020026020010181905250808061079690612484565b91505061053d565b50919050565b33600090815260036020526040902060020154610100900460ff16156108115760405162461bcd60e51b815260206004820152601760248201527f5573657220616c7265616479207265676973746572656400000000000000000060448201526064015b60405180910390fd5b600281600281111561082557610825612115565b036108725760405162461bcd60e51b815260206004820152601860248201527f43616e6e6f742072656769737465722061732061646d696e00000000000000006044820152606401610808565b6040518060800160405280336001600160a01b031681526020018381526020018260028111156108a4576108a4612115565b8152600160209182018190523360009081526003835260409020835181546001600160a01b0319166001600160a01b0390911617815591830151908201906108ec90826124ec565b5060408201518160020160006101000a81548160ff0219169083600281111561091757610917612115565b021790555060609190910151600290910180549115156101000261ff001990921691909117905560405133907fc2e5d5da58bd71d1a2d14cdef02a4256d971b728088f8190d067ccfbae3bd73e9061097290859085906125ac565b60405180910390a25050565b600086815260046020526040902060058101546001600160a01b031633146109e85760405162461bcd60e51b815260206004820152601d60248201527f4f6e6c792070726f64756374206f776e65722063616e207570646174650000006044820152606401610808565b60008411610a385760405162461bcd60e51b815260206004820152601c60248201527f5072696365206d7573742062652067726561746572207468616e2030000000006044820152606401610808565b60018101610a4687826124ec565b5060028101610a5586826124ec565b50600381018490556004810183905560068101610a7283826124ec565b50867ff9b1d9170fbe32752353e00d62e5276b143166c75aa974030dddfac2895601fe8786604051610aa59291906125ce565b60405180910390a250505050505050565b6001600160a01b038116600090815260066020908152604091829020805483518184028101840190945280845260609392830182828015610b1657602002820191906000526020600020905b815481526020019060010190808311610b02575b50505050509050919050565b33600090815260036020526040902060020154610100900460ff16610b7f5760405162461bcd60e51b8152602060048201526013602482015272155cd95c881b9bdd081c9959da5cdd195c9959606a1b6044820152606401610808565b600133600090815260036020526040902060029081015460ff1690811115610ba957610ba9612115565b1480610bda575033600090815260036020526040902060029081015460ff1681811115610bd857610bd8612115565b145b610c325760405162461bcd60e51b8152602060048201526024808201527f4f6e6c792073656c6c6572732063616e20706572666f726d20746869732061636044820152633a34b7b760e11b6064820152608401610808565b60008311610c825760405162461bcd60e51b815260206004820152601c60248201527f5072696365206d7573742062652067726561746572207468616e2030000000006044820152606401610808565b60008211610cd25760405162461bcd60e51b815260206004820152601c60248201527f53746f636b206d7573742062652067726561746572207468616e2030000000006044820152606401610808565b60018054906000610ce283612484565b909155505060408051610100810182526001805480835260208084018a81528486018a905260608501899052608085018890523360a086015260c0850184905260e085018790526000928352600490915293902082518155925191929190820190610d4d90826124ec565b5060408201516002820190610d6290826124ec565b50606082015160038201556080820151600482015560a082015160058201805460c08501511515600160a01b026001600160a81b03199091166001600160a01b039093169290921791909117905560e08201516006820190610dc490826124ec565b5050336000818152600760209081526040808320600180548254808301845592865293909420019190915590549051919250907f52402cafb2ecec722b103e8f203f83362148c168659dc96678c2c6850d12dd9f90610e2690899088906125ce565b60405180910390a35050505050565b610e606040805160808101825260008082526060602083015290918201908152600060209091015290565b6001600160a01b038083166000908152600360209081526040918290208251608081019093528054909316825260018301805492939291840191610ea390612411565b80601f0160208091040260200160405190810160405280929190818152602001828054610ecf90612411565b8015610f1c5780601f10610ef157610100808354040283529160200191610f1c565b820191906000526020600020905b815481529060010190602001808311610eff57829003601f168201915b505050918352505060028281015460209092019160ff1690811115610f4357610f43612115565b6002811115610f5457610f54612115565b815260029190910154610100900460ff16151560209091015292915050565b33600090815260036020526040902060020154610100900460ff16610fd05760405162461bcd60e51b8152602060048201526013602482015272155cd95c881b9bdd081c9959da5cdd195c9959606a1b6044820152606401610808565b60008281526004602052604090206005810154600160a01b900460ff166110315760405162461bcd60e51b815260206004820152601560248201527450726f64756374206973206e6f742061637469766560581b6044820152606401610808565b818160040154101561107a5760405162461bcd60e51b8152602060048201526012602482015271496e73756666696369656e742073746f636b60701b6044820152606401610808565b600082116110ca5760405162461bcd60e51b815260206004820152601f60248201527f5175616e74697479206d7573742062652067726561746572207468616e2030006044820152606401610808565b60008282600301546110dc91906125f0565b9050803410156111255760405162461bcd60e51b8152602060048201526014602482015273125b9cdd59999a58da595b9d081c185e5b595b9d60621b6044820152606401610808565b82826004016000828254611139919061245b565b90915550506002805490600061114e83612484565b90915550506040805161010081018252600280548083526020808401898152338587019081526005898101546001600160a01b0390811660608901908152608089018d815260a08a018c8152600060c08c018181524260e08e0152998152978590529a909620895181559451600180870191909155935197850180546001600160a01b03199081169984169990991790555160038501805490981691161790955591516004808301919091559551938101939093559051600683018054949593949193909260ff199092169190849081111561122c5761122c612115565b021790555060e0919091015160079091015533600090815260066020908152604080832060025481546001810183559185529284200191909155600584015490516001600160a01b03909116916108fc841502918491818181858888f1935050505015801561129f573d6000803e3d6000fd5b50803411156112e057336108fc6112b6833461245b565b6040518115909202916000818181858888f193505050501580156112de573d6000803e3d6000fd5b505b600254604051848152339186917fab45dcf8e0b46d291b98e53c6f1c6774dc32e2436543291f7bfbb3e3c48b2f9f9060200160405180910390a460405181815233907f6ef95f06320e7a25a04a175ca677b7052bdd97131872c2192525a629f51be7709060200160405180910390a250505050565b6004602052600090815260409020805460018201805491929161137790612411565b80601f01602080910402602001604051908101604052809291908181526020018280546113a390612411565b80156113f05780601f106113c5576101008083540402835291602001916113f0565b820191906000526020600020905b8154815290600101906020018083116113d357829003601f168201915b50505050509080600201805461140590612411565b80601f016020809104026020016040519081016040528092919081815260200182805461143190612411565b801561147e5780601f106114535761010080835404028352916020019161147e565b820191906000526020600020905b81548152906001019060200180831161146157829003601f168201915b50505050600383015460048401546005850154600686018054959693959294506001600160a01b03821693600160a01b90920460ff16926114be90612411565b80601f01602080910402602001604051908101604052809291908181526020018280546114ea90612411565b80156115375780601f1061150c57610100808354040283529160200191611537565b820191906000526020600020905b81548152906001019060200180831161151a57829003601f168201915b5050505050905088565b6060600060025467ffffffffffffffff81111561156057611560611e5a565b60405190808252806020026020018201604052801561159957816020015b611586611cb3565b81526020019060019003908161157e5790505b50905060015b600254811161079e576000818152600560208181526040928390208351610100810185528154815260018201549281019290925260028101546001600160a01b03908116948301949094526003810154909316606082015260048084015460808301529183015460a0820152600683015490929160c084019160ff169081111561162b5761162b612115565b600481111561163c5761163c612115565b8152600791909101546020909101528261165760018461245b565b815181106116675761166761246e565b6020026020010181905250808061167d90612484565b91505061159f565b600660205281600052604060002081815481106116a157600080fd5b90600052602060002001600091509150505481565b600360205260009081526040902080546001820180546001600160a01b0390921692916116e290612411565b80601f016020809104026020016040519081016040528092919081815260200182805461170e90612411565b801561175b5780601f106117305761010080835404028352916020019161175b565b820191906000526020600020905b81548152906001019060200180831161173e57829003601f168201915b5050506002909301549192505060ff8082169161010090041684565b600082815260056020526040902060038101546001600160a01b03163314806117aa57506000546001600160a01b031633145b61180b5760405162461bcd60e51b815260206004820152602c60248201527f4f6e6c792073656c6c6572206f722061646d696e2063616e207570646174652060448201526b6f726465722073746174757360a01b6064820152608401610808565b60068101805483919060ff1916600183600481111561182c5761182c612115565b0217905550827fd9a86b644eb5f5b43cc8a700849852481080361c7a4b00ba646d1b46c5585f95836040516118619190612607565b60405180910390a2505050565b611876611c63565b6004600083815260200190815260200160002060405180610100016040529081600082015481526020016001820180546118af90612411565b80601f01602080910402602001604051908101604052809291908181526020018280546118db90612411565b80156119285780601f106118fd57610100808354040283529160200191611928565b820191906000526020600020905b81548152906001019060200180831161190b57829003601f168201915b5050505050815260200160028201805461194190612411565b80601f016020809104026020016040519081016040528092919081815260200182805461196d90612411565b80156119ba5780601f1061198f576101008083540402835291602001916119ba565b820191906000526020600020905b81548152906001019060200180831161199d57829003601f168201915b5050509183525050600382015460208201526004820154604082015260058201546001600160a01b0381166060830152600160a01b900460ff161515608082015260068201805460a090920191611a1090612411565b80601f0160208091040260200160405190810160405280929190818152602001828054611a3c90612411565b8015611a895780601f10611a5e57610100808354040283529160200191611a89565b820191906000526020600020905b815481529060010190602001808311611a6c57829003601f168201915b5050505050815250509050919050565b600760205281600052604060002081815481106116a157600080fd5b600081815260046020526040902060058101546001600160a01b0316331480611ae857506000546001600160a01b031633145b611b255760405162461bcd60e51b815260206004820152600e60248201526d139bdd08185d5d1a1bdc9a5e995960921b6044820152606401610808565b600501805460ff60a01b198116600160a01b9182900460ff161590910217905550565b611b50611cb3565b6000828152600560208181526040928390208351610100810185528154815260018201549281019290925260028101546001600160a01b03908116948301949094526003810154909316606082015260048084015460808301529183015460a0820152600683015490929160c084019160ff1690811115611bd357611bd3612115565b6004811115611be457611be4612115565b81526020016007820154815250509050919050565b6001600160a01b038116600090815260076020908152604091829020805483518184028101840190945280845260609392830182828015610b165760200282019190600052602060002090815481526020019060010190808311610b025750505050509050919050565b604051806101000160405280600081526020016060815260200160608152602001600081526020016000815260200160006001600160a01b03168152602001600015158152602001606081525090565b604051806101000160405280600081526020016000815260200160006001600160a01b0316815260200160006001600160a01b03168152602001600081526020016000815260200160006004811115611d0e57611d0e612115565b8152602001600081525090565b6000815180845260005b81811015611d4157602081850181015186830182015201611d25565b506000602082860101526020601f19601f83011685010191505092915050565b6000610100825184526020830151816020860152611d8182860182611d1b565b91505060408301518482036040860152611d9b8282611d1b565b915050606083015160608501526080830151608085015260018060a01b0360a08401511660a085015260c0830151611dd760c086018215159052565b5060e083015184820360e0860152611def8282611d1b565b95945050505050565b6000602080830181845280855180835260408601915060408160051b870101925083870160005b82811015611e4d57603f19888603018452611e3b858351611d61565b94509285019290850190600101611e1f565b5092979650505050505050565b634e487b7160e01b600052604160045260246000fd5b600082601f830112611e8157600080fd5b813567ffffffffffffffff80821115611e9c57611e9c611e5a565b604051601f8301601f19908116603f01168101908282118183101715611ec457611ec4611e5a565b81604052838152866020858801011115611edd57600080fd5b836020870160208301376000602085830101528094505050505092915050565b60008060408385031215611f1057600080fd5b823567ffffffffffffffff811115611f2757600080fd5b611f3385828601611e70565b925050602083013560038110611f4857600080fd5b809150509250929050565b60008060008060008060c08789031215611f6c57600080fd5b86359550602087013567ffffffffffffffff80821115611f8b57600080fd5b611f978a838b01611e70565b96506040890135915080821115611fad57600080fd5b611fb98a838b01611e70565b9550606089013594506080890135935060a0890135915080821115611fdd57600080fd5b50611fea89828a01611e70565b9150509295509295509295565b80356001600160a01b038116811461200e57600080fd5b919050565b60006020828403121561202557600080fd5b61202e82611ff7565b9392505050565b6020808252825182820181905260009190848201906040850190845b8181101561206d57835183529284019291840191600101612051565b50909695505050505050565b600080600080600060a0868803121561209157600080fd5b853567ffffffffffffffff808211156120a957600080fd5b6120b589838a01611e70565b965060208801359150808211156120cb57600080fd5b6120d789838a01611e70565b9550604088013594506060880135935060808801359150808211156120fb57600080fd5b5061210888828901611e70565b9150509295509295909350565b634e487b7160e01b600052602160045260246000fd5b6003811061213b5761213b612115565b9052565b602080825282516001600160a01b0316828201528201516080604083015260009061216d60a0840182611d1b565b90506040840151612181606085018261212b565b506060840151151560808401528091505092915050565b600080604083850312156121ab57600080fd5b50508035926020909101359150565b6000602082840312156121cc57600080fd5b5035919050565b60006101008a83528060208401526121ed8184018b611d1b565b90508281036040840152612201818a611d1b565b60608401899052608084018890526001600160a01b03871660a085015285151560c085015283810360e0850152905061223a8185611d1b565b9b9a5050505050505050505050565b6005811061213b5761213b612115565b8051825260208101516020830152604081015160018060a01b03808216604085015280606084015116606085015250506080810151608083015260a081015160a083015260c08101516122af60c0840182612249565b5060e090810151910152565b6020808252825182820181905260009190848201906040850190845b8181101561206d576122ea838551612259565b9284019261010092909201916001016122d7565b6000806040838503121561231157600080fd5b61231a83611ff7565b946020939093013593505050565b888152602081018890526001600160a01b038781166040830152861660608201526080810185905260a08101849052610100810161236960c0830185612249565b8260e08301529998505050505050505050565b6001600160a01b03851681526080602082018190526000906123a090830186611d1b565b90506123af604083018561212b565b821515606083015295945050505050565b600080604083850312156123d357600080fd5b82359150602083013560058110611f4857600080fd5b60208152600061202e6020830184611d61565b610100810161240b8284612259565b92915050565b600181811c9082168061242557607f821691505b60208210810361079e57634e487b7160e01b600052602260045260246000fd5b634e487b7160e01b600052601160045260246000fd5b8181038181111561240b5761240b612445565b634e487b7160e01b600052603260045260246000fd5b60006001820161249657612496612445565b5060010190565b601f8211156124e757600081815260208120601f850160051c810160208610156124c45750805b601f850160051c820191505b818110156124e3578281556001016124d0565b5050505b505050565b815167ffffffffffffffff81111561250657612506611e5a565b61251a816125148454612411565b8461249d565b602080601f83116001811461254f57600084156125375750858301515b600019600386901b1c1916600185901b1785556124e3565b600085815260208120601f198616915b8281101561257e5788860151825594840194600190910190840161255f565b508582101561259c5787850151600019600388901b60f8161c191681555b5050505050600190811b01905550565b6040815260006125bf6040830185611d1b565b905061202e602083018461212b565b6040815260006125e16040830185611d1b565b90508260208301529392505050565b808202811582820484141761240b5761240b612445565b6020810161240b828461224956fea264697066735822122047e809e892a58dfb065991445bb2497bc3f37fa4bc6d5c142fa8801e5e02408464736f6c63430008130033",
  "immutableReferences": {},
  "source": "// SPDX-License-Identifier: MIT\r\npragma solidity ^0.8.19;\r\n\r\ncontract EcommerceStore {\r\n    \r\n    // Structures\r\n    struct User {\r\n        address userAddress;\r\n        string name;\r\n        UserRole role;\r\n        bool isRegistered;\r\n    }\r\n    \r\n    struct Product {\r\n        uint256 id;\r\n        string name;\r\n        string description;\r\n        uint256 price;\r\n        uint256 stock;\r\n        address payable seller;\r\n        bool isActive;\r\n        string imageUrl;\r\n    }\r\n    \r\n    struct Order {\r\n        uint256 id;\r\n        uint256 productId;\r\n        address buyer;\r\n        address seller;\r\n        uint256 quantity;\r\n        uint256 totalPrice;\r\n        OrderStatus status;\r\n        uint256 timestamp;\r\n    }\r\n    \r\n    // Enums\r\n    enum UserRole { Client, Seller, Admin }\r\n    enum OrderStatus { Pending, Confirmed, Shipped, Delivered, Cancelled }\r\n    \r\n    // State variables\r\n    address public admin;\r\n    uint256 public productCounter;\r\n    uint256 public orderCounter;\r\n    \r\n    mapping(address => User) public users;\r\n    mapping(uint256 => Product) public products;\r\n    mapping(uint256 => Order) public orders;\r\n    mapping(address => uint256[]) public userOrders;\r\n    mapping(address => uint256[]) public sellerProducts;\r\n    \r\n    // Events\r\n    event UserRegistered(address indexed userAddress, string name, UserRole role);\r\n    event ProductAdded(uint256 indexed productId, string name, uint256 price, address indexed seller);\r\n    event ProductUpdated(uint256 indexed productId, string name, uint256 price);\r\n    event OrderCreated(uint256 indexed orderId, uint256 indexed productId, address indexed buyer, uint256 quantity);\r\n    event OrderStatusUpdated(uint256 indexed orderId, OrderStatus status);\r\n    event PaymentReceived(address indexed from, uint256 amount);\r\n    \r\n    // Modifiers\r\n    modifier onlyAdmin() {\r\n        require(msg.sender == admin, \"Only admin can perform this action\");\r\n        _;\r\n    }\r\n    \r\n    modifier onlyRegistered() {\r\n        require(users[msg.sender].isRegistered, \"User not registered\");\r\n        _;\r\n    }\r\n    \r\n    modifier onlySeller() {\r\n        require(users[msg.sender].role == UserRole.Seller || users[msg.sender].role == UserRole.Admin, \"Only sellers can perform this action\");\r\n        _;\r\n    }\r\n    \r\n    constructor() {\r\n    admin = msg.sender;\r\n    // On enregistre l'admin aussi comme vendeur pour le test\r\n    users[admin] = User(admin, \"Admin\", UserRole.Admin, true);\r\n    \r\n    // Ajout d'un produit initial pour que React trouve quelque chose\r\n    productCounter++;\r\n    products[productCounter] = Product(\r\n        productCounter,\r\n        \"Livre Blockchain\",\r\n        \"Apprendre Solidity\",\r\n        0.1 ether,\r\n        100,\r\n        payable(admin),\r\n        true,\r\n        \"https://via.placeholder.com/150\"\r\n    );\r\n}\r\n    \r\n    // User Management\r\n    function registerUser(string memory _name, UserRole _role) public {\r\n        require(!users[msg.sender].isRegistered, \"User already registered\");\r\n        require(_role != UserRole.Admin, \"Cannot register as admin\");\r\n        \r\n        users[msg.sender] = User(msg.sender, _name, _role, true);\r\n        emit UserRegistered(msg.sender, _name, _role);\r\n    }\r\n    \r\n    function getUser(address _userAddress) public view returns (User memory) {\r\n        return users[_userAddress];\r\n    }\r\n    \r\n    // Product Management\r\n    function addProduct(\r\n        string memory _name,\r\n        string memory _description,\r\n        uint256 _price,\r\n        uint256 _stock,\r\n        string memory _imageUrl\r\n    ) public onlyRegistered onlySeller {\r\n        require(_price > 0, \"Price must be greater than 0\");\r\n        require(_stock > 0, \"Stock must be greater than 0\");\r\n        \r\n        productCounter++;\r\n        products[productCounter] = Product(\r\n            productCounter,\r\n            _name,\r\n            _description,\r\n            _price,\r\n            _stock,\r\n            payable(msg.sender),\r\n            true,\r\n            _imageUrl\r\n        );\r\n        \r\n        sellerProducts[msg.sender].push(productCounter);\r\n        emit ProductAdded(productCounter, _name, _price, msg.sender);\r\n    }\r\n    \r\n    function updateProduct(\r\n        uint256 _productId,\r\n        string memory _name,\r\n        string memory _description,\r\n        uint256 _price,\r\n        uint256 _stock,\r\n        string memory _imageUrl\r\n    ) public {\r\n        Product storage product = products[_productId];\r\n        require(product.seller == msg.sender, \"Only product owner can update\");\r\n        require(_price > 0, \"Price must be greater than 0\");\r\n        \r\n        product.name = _name;\r\n        product.description = _description;\r\n        product.price = _price;\r\n        product.stock = _stock;\r\n        product.imageUrl = _imageUrl;\r\n        \r\n        emit ProductUpdated(_productId, _name, _price);\r\n    }\r\n    \r\n    function toggleProductStatus(uint256 _productId) public {\r\n        Product storage product = products[_productId];\r\n        require(product.seller == msg.sender || msg.sender == admin, \"Not authorized\");\r\n        \r\n        product.isActive = !product.isActive;\r\n    }\r\n    \r\n    function getProduct(uint256 _productId) public view returns (Product memory) {\r\n        return products[_productId];\r\n    }\r\n    \r\n    function getAllProducts() public view returns (Product[] memory) {\r\n        Product[] memory allProducts = new Product[](productCounter);\r\n        for (uint256 i = 1; i <= productCounter; i++) {\r\n            allProducts[i - 1] = products[i];\r\n        }\r\n        return allProducts;\r\n    }\r\n    \r\n    function getSellerProducts(address _seller) public view returns (uint256[] memory) {\r\n        return sellerProducts[_seller];\r\n    }\r\n    \r\n    // Order Management\r\n    function createOrder(uint256 _productId, uint256 _quantity) public payable onlyRegistered {\r\n        Product storage product = products[_productId];\r\n        \r\n        require(product.isActive, \"Product is not active\");\r\n        require(product.stock >= _quantity, \"Insufficient stock\");\r\n        require(_quantity > 0, \"Quantity must be greater than 0\");\r\n        \r\n        uint256 totalPrice = product.price * _quantity;\r\n        require(msg.value >= totalPrice, \"Insufficient payment\");\r\n        \r\n        // Update stock\r\n        product.stock -= _quantity;\r\n        \r\n        // Create order\r\n        orderCounter++;\r\n        orders[orderCounter] = Order(\r\n            orderCounter,\r\n            _productId,\r\n            msg.sender,\r\n            product.seller,\r\n            _quantity,\r\n            totalPrice,\r\n            OrderStatus.Pending,\r\n            block.timestamp\r\n        );\r\n        \r\n        userOrders[msg.sender].push(orderCounter);\r\n        \r\n        // Transfer payment to seller\r\n        product.seller.transfer(totalPrice);\r\n        \r\n        // Refund excess payment\r\n        if (msg.value > totalPrice) {\r\n            payable(msg.sender).transfer(msg.value - totalPrice);\r\n        }\r\n        \r\n        emit OrderCreated(orderCounter, _productId, msg.sender, _quantity);\r\n        emit PaymentReceived(msg.sender, totalPrice);\r\n    }\r\n    \r\n    function updateOrderStatus(uint256 _orderId, OrderStatus _status) public {\r\n        Order storage order = orders[_orderId];\r\n        require(\r\n            order.seller == msg.sender || msg.sender == admin,\r\n            \"Only seller or admin can update order status\"\r\n        );\r\n        \r\n        order.status = _status;\r\n        emit OrderStatusUpdated(_orderId, _status);\r\n    }\r\n    \r\n    function getOrder(uint256 _orderId) public view returns (Order memory) {\r\n        return orders[_orderId];\r\n    }\r\n    \r\n    function getUserOrders(address _user) public view returns (uint256[] memory) {\r\n        return userOrders[_user];\r\n    }\r\n    \r\n    function getAllOrders() public view returns (Order[] memory) {\r\n        Order[] memory allOrders = new Order[](orderCounter);\r\n        for (uint256 i = 1; i <= orderCounter; i++) {\r\n            allOrders[i - 1] = orders[i];\r\n        }\r\n        return allOrders;\r\n    }\r\n    \r\n    // Statistics\r\n    function getTotalProducts() public view returns (uint256) {\r\n        return productCounter;\r\n    }\r\n    \r\n    function getTotalOrders() public view returns (uint256) {\r\n        return orderCounter;\r\n    }\r\n}",
  "sourcePath": "C:\\Users\\hp\\Desktop\\3A\\BlockChain\\plateformeEcommerce\\ecommerce\\contracts\\EcommerceStore.sol",
  "compiler": {
    "name": "solc",
    "version": "0.8.19+commit.7dd6d404.Emscripten.clang"
  },
  "schemaVersion": "3.4.16",
  "updatedAt": "2025-12-30T15:59:18.048Z",
  "networkType": "ethereum",
  "devdoc": {
    "kind": "dev",
    "methods": {},
    "version": 1
  },
  "userdoc": {
    "kind": "user",
    "methods": {},
    "version": 1
  }
}