{
  "contractName": "EcommerceStore",
  "abi": [
    {
      "inputs": [],
      "stateMutability": "nonpayable",
      "type": "constructor"
    },
    {
      "anonymous": false,
      "inputs": [
        {
          "indexed": true,
          "internalType": "address",
          "name": "user",
          "type": "address"
        }
      ],
      "name": "CartCleared",
      "type": "event"
    },
    {
      "anonymous": false,
      "inputs": [
        {
          "indexed": true,
          "internalType": "address",
          "name": "user",
          "type": "address"
        },
        {
          "indexed": false,
          "internalType": "uint256",
          "name": "productId",
          "type": "uint256"
        },
        {
          "indexed": false,
          "internalType": "uint256",
          "name": "quantity",
          "type": "uint256"
        }
      ],
      "name": "CartItemAdded",
      "type": "event"
    },
    {
      "anonymous": false,
      "inputs": [
        {
          "indexed": true,
          "internalType": "address",
          "name": "user",
          "type": "address"
        },
        {
          "indexed": false,
          "internalType": "uint256",
          "name": "productId",
          "type": "uint256"
        }
      ],
      "name": "CartItemRemoved",
      "type": "event"
    },
    {
      "anonymous": false,
      "inputs": [
        {
          "indexed": true,
          "internalType": "uint256",
          "name": "orderId",
          "type": "uint256"
        }
      ],
      "name": "OrderCancelled",
      "type": "event"
    },
    {
      "anonymous": false,
      "inputs": [
        {
          "indexed": true,
          "internalType": "uint256",
          "name": "orderId",
          "type": "uint256"
        },
        {
          "indexed": true,
          "internalType": "uint256",
          "name": "productId",
          "type": "uint256"
        },
        {
          "indexed": true,
          "internalType": "address",
          "name": "buyer",
          "type": "address"
        },
        {
          "indexed": false,
          "internalType": "uint256",
          "name": "quantity",
          "type": "uint256"
        }
      ],
      "name": "OrderCreated",
      "type": "event"
    },
    {
      "anonymous": false,
      "inputs": [
        {
          "indexed": true,
          "internalType": "uint256",
          "name": "orderId",
          "type": "uint256"
        },
        {
          "indexed": false,
          "internalType": "enum EcommerceStore.OrderStatus",
          "name": "status",
          "type": "uint8"
        }
      ],
      "name": "OrderStatusUpdated",
      "type": "event"
    },
    {
      "anonymous": false,
      "inputs": [
        {
          "indexed": true,
          "internalType": "address",
          "name": "from",
          "type": "address"
        },
        {
          "indexed": false,
          "internalType": "uint256",
          "name": "amount",
          "type": "uint256"
        }
      ],
      "name": "PaymentReceived",
      "type": "event"
    },
    {
      "anonymous": false,
      "inputs": [
        {
          "indexed": true,
          "internalType": "uint256",
          "name": "productId",
          "type": "uint256"
        },
        {
          "indexed": false,
          "internalType": "string",
          "name": "name",
          "type": "string"
        },
        {
          "indexed": false,
          "internalType": "uint256",
          "name": "price",
          "type": "uint256"
        },
        {
          "indexed": true,
          "internalType": "address",
          "name": "seller",
          "type": "address"
        }
      ],
      "name": "ProductAdded",
      "type": "event"
    },
    {
      "anonymous": false,
      "inputs": [
        {
          "indexed": true,
          "internalType": "uint256",
          "name": "productId",
          "type": "uint256"
        },
        {
          "indexed": false,
          "internalType": "string",
          "name": "name",
          "type": "string"
        },
        {
          "indexed": false,
          "internalType": "uint256",
          "name": "price",
          "type": "uint256"
        }
      ],
      "name": "ProductUpdated",
      "type": "event"
    },
    {
      "anonymous": false,
      "inputs": [
        {
          "indexed": true,
          "internalType": "uint256",
          "name": "productId",
          "type": "uint256"
        },
        {
          "indexed": true,
          "internalType": "address",
          "name": "reviewer",
          "type": "address"
        },
        {
          "indexed": false,
          "internalType": "uint256",
          "name": "rating",
          "type": "uint256"
        }
      ],
      "name": "ReviewAdded",
      "type": "event"
    },
    {
      "anonymous": false,
      "inputs": [
        {
          "indexed": true,
          "internalType": "address",
          "name": "userAddress",
          "type": "address"
        },
        {
          "indexed": false,
          "internalType": "string",
          "name": "name",
          "type": "string"
        },
        {
          "indexed": false,
          "internalType": "enum EcommerceStore.UserRole",
          "name": "role",
          "type": "uint8"
        }
      ],
      "name": "UserRegistered",
      "type": "event"
    },
    {
      "inputs": [],
      "name": "admin",
      "outputs": [
        {
          "internalType": "address",
          "name": "",
          "type": "address"
        }
      ],
      "stateMutability": "view",
      "type": "function",
      "constant": true
    },
    {
      "inputs": [],
      "name": "orderCounter",
      "outputs": [
        {
          "internalType": "uint256",
          "name": "",
          "type": "uint256"
        }
      ],
      "stateMutability": "view",
      "type": "function",
      "constant": true
    },
    {
      "inputs": [
        {
          "internalType": "uint256",
          "name": "",
          "type": "uint256"
        }
      ],
      "name": "orders",
      "outputs": [
        {
          "internalType": "uint256",
          "name": "id",
          "type": "uint256"
        },
        {
          "internalType": "uint256",
          "name": "productId",
          "type": "uint256"
        },
        {
          "internalType": "address",
          "name": "buyer",
          "type": "address"
        },
        {
          "internalType": "address",
          "name": "seller",
          "type": "address"
        },
        {
          "internalType": "uint256",
          "name": "quantity",
          "type": "uint256"
        },
        {
          "internalType": "uint256",
          "name": "totalPrice",
          "type": "uint256"
        },
        {
          "internalType": "enum EcommerceStore.OrderStatus",
          "name": "status",
          "type": "uint8"
        },
        {
          "internalType": "uint256",
          "name": "timestamp",
          "type": "uint256"
        },
        {
          "internalType": "bool",
          "name": "isReviewed",
          "type": "bool"
        }
      ],
      "stateMutability": "view",
      "type": "function",
      "constant": true
    },
    {
      "inputs": [],
      "name": "productCounter",
      "outputs": [
        {
          "internalType": "uint256",
          "name": "",
          "type": "uint256"
        }
      ],
      "stateMutability": "view",
      "type": "function",
      "constant": true
    },
    {
      "inputs": [
        {
          "internalType": "uint256",
          "name": "",
          "type": "uint256"
        },
        {
          "internalType": "uint256",
          "name": "",
          "type": "uint256"
        }
      ],
      "name": "productReviews",
      "outputs": [
        {
          "internalType": "uint256",
          "name": "productId",
          "type": "uint256"
        },
        {
          "internalType": "address",
          "name": "reviewer",
          "type": "address"
        },
        {
          "internalType": "uint256",
          "name": "rating",
          "type": "uint256"
        },
        {
          "internalType": "string",
          "name": "comment",
          "type": "string"
        },
        {
          "internalType": "uint256",
          "name": "timestamp",
          "type": "uint256"
        }
      ],
      "stateMutability": "view",
      "type": "function",
      "constant": true
    },
    {
      "inputs": [
        {
          "internalType": "uint256",
          "name": "",
          "type": "uint256"
        }
      ],
      "name": "products",
      "outputs": [
        {
          "internalType": "uint256",
          "name": "id",
          "type": "uint256"
        },
        {
          "internalType": "string",
          "name": "name",
          "type": "string"
        },
        {
          "internalType": "string",
          "name": "description",
          "type": "string"
        },
        {
          "internalType": "uint256",
          "name": "price",
          "type": "uint256"
        },
        {
          "internalType": "uint256",
          "name": "stock",
          "type": "uint256"
        },
        {
          "internalType": "address payable",
          "name": "seller",
          "type": "address"
        },
        {
          "internalType": "bool",
          "name": "isActive",
          "type": "bool"
        },
        {
          "internalType": "string",
          "name": "imageUrl",
          "type": "string"
        },
        {
          "internalType": "uint256",
          "name": "createdAt",
          "type": "uint256"
        },
        {
          "internalType": "uint256",
          "name": "totalSales",
          "type": "uint256"
        },
        {
          "internalType": "uint256",
          "name": "rating",
          "type": "uint256"
        },
        {
          "internalType": "uint256",
          "name": "totalReviews",
          "type": "uint256"
        }
      ],
      "stateMutability": "view",
      "type": "function",
      "constant": true
    },
    {
      "inputs": [
        {
          "internalType": "address",
          "name": "",
          "type": "address"
        },
        {
          "internalType": "uint256",
          "name": "",
          "type": "uint256"
        }
      ],
      "name": "sellerProducts",
      "outputs": [
        {
          "internalType": "uint256",
          "name": "",
          "type": "uint256"
        }
      ],
      "stateMutability": "view",
      "type": "function",
      "constant": true
    },
    {
      "inputs": [],
      "name": "totalTransactionVolume",
      "outputs": [
        {
          "internalType": "uint256",
          "name": "",
          "type": "uint256"
        }
      ],
      "stateMutability": "view",
      "type": "function",
      "constant": true
    },
    {
      "inputs": [
        {
          "internalType": "address",
          "name": "",
          "type": "address"
        },
        {
          "internalType": "uint256",
          "name": "",
          "type": "uint256"
        }
      ],
      "name": "userCart",
      "outputs": [
        {
          "internalType": "uint256",
          "name": "productId",
          "type": "uint256"
        },
        {
          "internalType": "uint256",
          "name": "quantity",
          "type": "uint256"
        }
      ],
      "stateMutability": "view",
      "type": "function",
      "constant": true
    },
    {
      "inputs": [
        {
          "internalType": "address",
          "name": "",
          "type": "address"
        },
        {
          "internalType": "uint256",
          "name": "",
          "type": "uint256"
        }
      ],
      "name": "userOrders",
      "outputs": [
        {
          "internalType": "uint256",
          "name": "",
          "type": "uint256"
        }
      ],
      "stateMutability": "view",
      "type": "function",
      "constant": true
    },
    {
      "inputs": [
        {
          "internalType": "address",
          "name": "",
          "type": "address"
        },
        {
          "internalType": "uint256",
          "name": "",
          "type": "uint256"
        }
      ],
      "name": "userPurchaseHistory",
      "outputs": [
        {
          "internalType": "uint256",
          "name": "",
          "type": "uint256"
        }
      ],
      "stateMutability": "view",
      "type": "function",
      "constant": true
    },
    {
      "inputs": [
        {
          "internalType": "address",
          "name": "",
          "type": "address"
        }
      ],
      "name": "users",
      "outputs": [
        {
          "internalType": "address",
          "name": "userAddress",
          "type": "address"
        },
        {
          "internalType": "string",
          "name": "name",
          "type": "string"
        },
        {
          "internalType": "enum EcommerceStore.UserRole",
          "name": "role",
          "type": "uint8"
        },
        {
          "internalType": "bool",
          "name": "isRegistered",
          "type": "bool"
        },
        {
          "internalType": "uint256",
          "name": "createdAt",
          "type": "uint256"
        },
        {
          "internalType": "uint256",
          "name": "totalPurchases",
          "type": "uint256"
        },
        {
          "internalType": "uint256",
          "name": "totalEarnings",
          "type": "uint256"
        }
      ],
      "stateMutability": "view",
      "type": "function",
      "constant": true
    },
    {
      "inputs": [
        {
          "internalType": "string",
          "name": "_name",
          "type": "string"
        },
        {
          "internalType": "enum EcommerceStore.UserRole",
          "name": "_role",
          "type": "uint8"
        }
      ],
      "name": "registerUser",
      "outputs": [],
      "stateMutability": "nonpayable",
      "type": "function"
    },
    {
      "inputs": [
        {
          "internalType": "address",
          "name": "_userAddress",
          "type": "address"
        }
      ],
      "name": "getUser",
      "outputs": [
        {
          "components": [
            {
              "internalType": "address",
              "name": "userAddress",
              "type": "address"
            },
            {
              "internalType": "string",
              "name": "name",
              "type": "string"
            },
            {
              "internalType": "enum EcommerceStore.UserRole",
              "name": "role",
              "type": "uint8"
            },
            {
              "internalType": "bool",
              "name": "isRegistered",
              "type": "bool"
            },
            {
              "internalType": "uint256",
              "name": "createdAt",
              "type": "uint256"
            },
            {
              "internalType": "uint256",
              "name": "totalPurchases",
              "type": "uint256"
            },
            {
              "internalType": "uint256",
              "name": "totalEarnings",
              "type": "uint256"
            }
          ],
          "internalType": "struct EcommerceStore.User",
          "name": "",
          "type": "tuple"
        }
      ],
      "stateMutability": "view",
      "type": "function",
      "constant": true
    },
    {
      "inputs": [
        {
          "internalType": "string",
          "name": "_name",
          "type": "string"
        },
        {
          "internalType": "string",
          "name": "_description",
          "type": "string"
        },
        {
          "internalType": "uint256",
          "name": "_price",
          "type": "uint256"
        },
        {
          "internalType": "uint256",
          "name": "_stock",
          "type": "uint256"
        },
        {
          "internalType": "string",
          "name": "_imageUrl",
          "type": "string"
        }
      ],
      "name": "addProduct",
      "outputs": [],
      "stateMutability": "nonpayable",
      "type": "function"
    },
    {
      "inputs": [
        {
          "internalType": "uint256",
          "name": "_productId",
          "type": "uint256"
        },
        {
          "internalType": "string",
          "name": "_name",
          "type": "string"
        },
        {
          "internalType": "string",
          "name": "_description",
          "type": "string"
        },
        {
          "internalType": "uint256",
          "name": "_price",
          "type": "uint256"
        },
        {
          "internalType": "uint256",
          "name": "_stock",
          "type": "uint256"
        },
        {
          "internalType": "string",
          "name": "_imageUrl",
          "type": "string"
        }
      ],
      "name": "updateProduct",
      "outputs": [],
      "stateMutability": "nonpayable",
      "type": "function"
    },
    {
      "inputs": [
        {
          "internalType": "uint256",
          "name": "_productId",
          "type": "uint256"
        }
      ],
      "name": "toggleProductStatus",
      "outputs": [],
      "stateMutability": "nonpayable",
      "type": "function"
    },
    {
      "inputs": [
        {
          "internalType": "uint256",
          "name": "_productId",
          "type": "uint256"
        }
      ],
      "name": "getProduct",
      "outputs": [
        {
          "components": [
            {
              "internalType": "uint256",
              "name": "id",
              "type": "uint256"
            },
            {
              "internalType": "string",
              "name": "name",
              "type": "string"
            },
            {
              "internalType": "string",
              "name": "description",
              "type": "string"
            },
            {
              "internalType": "uint256",
              "name": "price",
              "type": "uint256"
            },
            {
              "internalType": "uint256",
              "name": "stock",
              "type": "uint256"
            },
            {
              "internalType": "address payable",
              "name": "seller",
              "type": "address"
            },
            {
              "internalType": "bool",
              "name": "isActive",
              "type": "bool"
            },
            {
              "internalType": "string",
              "name": "imageUrl",
              "type": "string"
            },
            {
              "internalType": "uint256",
              "name": "createdAt",
              "type": "uint256"
            },
            {
              "internalType": "uint256",
              "name": "totalSales",
              "type": "uint256"
            },
            {
              "internalType": "uint256",
              "name": "rating",
              "type": "uint256"
            },
            {
              "internalType": "uint256",
              "name": "totalReviews",
              "type": "uint256"
            }
          ],
          "internalType": "struct EcommerceStore.Product",
          "name": "",
          "type": "tuple"
        }
      ],
      "stateMutability": "view",
      "type": "function",
      "constant": true
    },
    {
      "inputs": [],
      "name": "getAllProducts",
      "outputs": [
        {
          "components": [
            {
              "internalType": "uint256",
              "name": "id",
              "type": "uint256"
            },
            {
              "internalType": "string",
              "name": "name",
              "type": "string"
            },
            {
              "internalType": "string",
              "name": "description",
              "type": "string"
            },
            {
              "internalType": "uint256",
              "name": "price",
              "type": "uint256"
            },
            {
              "internalType": "uint256",
              "name": "stock",
              "type": "uint256"
            },
            {
              "internalType": "address payable",
              "name": "seller",
              "type": "address"
            },
            {
              "internalType": "bool",
              "name": "isActive",
              "type": "bool"
            },
            {
              "internalType": "string",
              "name": "imageUrl",
              "type": "string"
            },
            {
              "internalType": "uint256",
              "name": "createdAt",
              "type": "uint256"
            },
            {
              "internalType": "uint256",
              "name": "totalSales",
              "type": "uint256"
            },
            {
              "internalType": "uint256",
              "name": "rating",
              "type": "uint256"
            },
            {
              "internalType": "uint256",
              "name": "totalReviews",
              "type": "uint256"
            }
          ],
          "internalType": "struct EcommerceStore.Product[]",
          "name": "",
          "type": "tuple[]"
        }
      ],
      "stateMutability": "view",
      "type": "function",
      "constant": true
    },
    {
      "inputs": [
        {
          "internalType": "address",
          "name": "_seller",
          "type": "address"
        }
      ],
      "name": "getSellerProducts",
      "outputs": [
        {
          "internalType": "uint256[]",
          "name": "",
          "type": "uint256[]"
        }
      ],
      "stateMutability": "view",
      "type": "function",
      "constant": true
    },
    {
      "inputs": [
        {
          "internalType": "uint256",
          "name": "_productId",
          "type": "uint256"
        },
        {
          "internalType": "uint256",
          "name": "_quantity",
          "type": "uint256"
        }
      ],
      "name": "createOrder",
      "outputs": [],
      "stateMutability": "payable",
      "type": "function",
      "payable": true
    },
    {
      "inputs": [
        {
          "internalType": "uint256",
          "name": "_orderId",
          "type": "uint256"
        },
        {
          "internalType": "enum EcommerceStore.OrderStatus",
          "name": "_status",
          "type": "uint8"
        }
      ],
      "name": "updateOrderStatus",
      "outputs": [],
      "stateMutability": "nonpayable",
      "type": "function"
    },
    {
      "inputs": [
        {
          "internalType": "uint256",
          "name": "_orderId",
          "type": "uint256"
        }
      ],
      "name": "getOrder",
      "outputs": [
        {
          "components": [
            {
              "internalType": "uint256",
              "name": "id",
              "type": "uint256"
            },
            {
              "internalType": "uint256",
              "name": "productId",
              "type": "uint256"
            },
            {
              "internalType": "address",
              "name": "buyer",
              "type": "address"
            },
            {
              "internalType": "address",
              "name": "seller",
              "type": "address"
            },
            {
              "internalType": "uint256",
              "name": "quantity",
              "type": "uint256"
            },
            {
              "internalType": "uint256",
              "name": "totalPrice",
              "type": "uint256"
            },
            {
              "internalType": "enum EcommerceStore.OrderStatus",
              "name": "status",
              "type": "uint8"
            },
            {
              "internalType": "uint256",
              "name": "timestamp",
              "type": "uint256"
            },
            {
              "internalType": "bool",
              "name": "isReviewed",
              "type": "bool"
            }
          ],
          "internalType": "struct EcommerceStore.Order",
          "name": "",
          "type": "tuple"
        }
      ],
      "stateMutability": "view",
      "type": "function",
      "constant": true
    },
    {
      "inputs": [
        {
          "internalType": "address",
          "name": "_user",
          "type": "address"
        }
      ],
      "name": "getUserOrders",
      "outputs": [
        {
          "internalType": "uint256[]",
          "name": "",
          "type": "uint256[]"
        }
      ],
      "stateMutability": "view",
      "type": "function",
      "constant": true
    },
    {
      "inputs": [],
      "name": "getAllOrders",
      "outputs": [
        {
          "components": [
            {
              "internalType": "uint256",
              "name": "id",
              "type": "uint256"
            },
            {
              "internalType": "uint256",
              "name": "productId",
              "type": "uint256"
            },
            {
              "internalType": "address",
              "name": "buyer",
              "type": "address"
            },
            {
              "internalType": "address",
              "name": "seller",
              "type": "address"
            },
            {
              "internalType": "uint256",
              "name": "quantity",
              "type": "uint256"
            },
            {
              "internalType": "uint256",
              "name": "totalPrice",
              "type": "uint256"
            },
            {
              "internalType": "enum EcommerceStore.OrderStatus",
              "name": "status",
              "type": "uint8"
            },
            {
              "internalType": "uint256",
              "name": "timestamp",
              "type": "uint256"
            },
            {
              "internalType": "bool",
              "name": "isReviewed",
              "type": "bool"
            }
          ],
          "internalType": "struct EcommerceStore.Order[]",
          "name": "",
          "type": "tuple[]"
        }
      ],
      "stateMutability": "view",
      "type": "function",
      "constant": true
    },
    {
      "inputs": [],
      "name": "getTotalProducts",
      "outputs": [
        {
          "internalType": "uint256",
          "name": "",
          "type": "uint256"
        }
      ],
      "stateMutability": "view",
      "type": "function",
      "constant": true
    },
    {
      "inputs": [],
      "name": "getTotalOrders",
      "outputs": [
        {
          "internalType": "uint256",
          "name": "",
          "type": "uint256"
        }
      ],
      "stateMutability": "view",
      "type": "function",
      "constant": true
    },
    {
      "inputs": [
        {
          "internalType": "uint256",
          "name": "_productId",
          "type": "uint256"
        },
        {
          "internalType": "uint256",
          "name": "_quantity",
          "type": "uint256"
        }
      ],
      "name": "addToCart",
      "outputs": [],
      "stateMutability": "nonpayable",
      "type": "function"
    },
    {
      "inputs": [
        {
          "internalType": "uint256",
          "name": "_productId",
          "type": "uint256"
        }
      ],
      "name": "removeFromCart",
      "outputs": [],
      "stateMutability": "nonpayable",
      "type": "function"
    },
    {
      "inputs": [
        {
          "internalType": "address",
          "name": "_user",
          "type": "address"
        }
      ],
      "name": "getCart",
      "outputs": [
        {
          "components": [
            {
              "internalType": "uint256",
              "name": "productId",
              "type": "uint256"
            },
            {
              "internalType": "uint256",
              "name": "quantity",
              "type": "uint256"
            }
          ],
          "internalType": "struct EcommerceStore.CartItem[]",
          "name": "",
          "type": "tuple[]"
        }
      ],
      "stateMutability": "view",
      "type": "function",
      "constant": true
    },
    {
      "inputs": [],
      "name": "clearCart",
      "outputs": [],
      "stateMutability": "nonpayable",
      "type": "function"
    },
    {
      "inputs": [
        {
          "internalType": "address",
          "name": "_user",
          "type": "address"
        }
      ],
      "name": "getCartTotal",
      "outputs": [
        {
          "internalType": "uint256",
          "name": "",
          "type": "uint256"
        }
      ],
      "stateMutability": "view",
      "type": "function",
      "constant": true
    },
    {
      "inputs": [
        {
          "internalType": "uint256",
          "name": "_productId",
          "type": "uint256"
        },
        {
          "internalType": "uint256",
          "name": "_rating",
          "type": "uint256"
        },
        {
          "internalType": "string",
          "name": "_comment",
          "type": "string"
        }
      ],
      "name": "addReview",
      "outputs": [],
      "stateMutability": "nonpayable",
      "type": "function"
    },
    {
      "inputs": [
        {
          "internalType": "uint256",
          "name": "_productId",
          "type": "uint256"
        }
      ],
      "name": "getProductReviews",
      "outputs": [
        {
          "components": [
            {
              "internalType": "uint256",
              "name": "productId",
              "type": "uint256"
            },
            {
              "internalType": "address",
              "name": "reviewer",
              "type": "address"
            },
            {
              "internalType": "uint256",
              "name": "rating",
              "type": "uint256"
            },
            {
              "internalType": "string",
              "name": "comment",
              "type": "string"
            },
            {
              "internalType": "uint256",
              "name": "timestamp",
              "type": "uint256"
            }
          ],
          "internalType": "struct EcommerceStore.Review[]",
          "name": "",
          "type": "tuple[]"
        }
      ],
      "stateMutability": "view",
      "type": "function",
      "constant": true
    },
    {
      "inputs": [
        {
          "internalType": "uint256",
          "name": "_orderId",
          "type": "uint256"
        }
      ],
      "name": "cancelOrder",
      "outputs": [],
      "stateMutability": "nonpayable",
      "type": "function"
    }
  ],
  "bytecode": "0x60806040523480156200001157600080fd5b5060008054336001600160a01b0319918216811783556040805160e08101825282815281518083018352600581526420b236b4b760d91b60208083019190915280830191825260028385015260016060840181905242608085015260a0840188905260c084018890529487526004905291909420845181546001600160a01b039190911694169390931783555190820190620000ae9082620003df565b5060408201518160020160006101000a81548160ff02191690836002811115620000dc57620000dc62000324565b021790555060608201516002820180549115156101000261ff00199092169190911790556080820151600382015560a0820151600482015560c090910151600590910155600180549060006200013283620004ab565b919050555060405180610180016040528060015481526020016040518060400160405280601081526020016f2634bb393290213637b1b5b1b430b4b760811b815250815260200160405180606001604052806023815260200162003f1760239139815267016345785d8a00006020808301919091526064604080840191909152600080546001600160a01b0316606085015260016080850181905282518084018452601f81527f68747470733a2f2f7669612e706c616365686f6c6465722e636f6d2f313530008186015260a08601524260c086015260e08501829052610100850182905261012090940181905283548152600583522083518155908301519091820190620002429082620003df565b5060408201516002820190620002599082620003df565b50606082015160038201556080820151600482015560a082015160058201805460c08501511515600160a01b026001600160a81b03199091166001600160a01b039093169290921791909117905560e08201516006820190620002bd9082620003df565b506101008201516007820155610120820151600880830191909155610140830151600983015561016090920151600a90910155600080546001600160a01b0316815260209182526040812060018054825491820183559183529290912090910155620004d3565b634e487b7160e01b600052602160045260246000fd5b634e487b7160e01b600052604160045260246000fd5b600181811c908216806200036557607f821691505b6020821081036200038657634e487b7160e01b600052602260045260246000fd5b50919050565b601f821115620003da57600081815260208120601f850160051c81016020861015620003b55750805b601f850160051c820191505b81811015620003d657828155600101620003c1565b5050505b505050565b81516001600160401b03811115620003fb57620003fb6200033a565b62000413816200040c845462000350565b846200038c565b602080601f8311600181146200044b5760008415620004325750858301515b600019600386901b1c1916600185901b178555620003d6565b600085815260208120601f198616915b828110156200047c578886015182559484019460019091019084016200045b565b50858210156200049b5787850151600019600388901b60f8161c191681555b5050505050600190811b01905550565b600060018201620004cc57634e487b7160e01b600052601160045260246000fd5b5060010190565b613a3480620004e36000396000f3fe6080604052600436106102045760003560e01c80637bea0d1c11610118578063c36ae766116100a0578063e6a93e161161006f578063e6a93e16146106a1578063eed3e097146106c1578063f2943dce146106e1578063f839f31914610712578063f851a4401461072857600080fd5b8063c36ae76614610614578063ca29610e14610634578063d09ef24114610654578063d2b88d6f1461068157600080fd5b8063a87430ba116100e7578063a87430ba1461055e578063aab3196d14610591578063b789bf52146105b1578063b9db15b4146105c7578063c1302b34146105f457600080fd5b80637bea0d1c14610458578063856652e91461047a578063a77c414e1461049a578063a85c38ef146104cf57600080fd5b8063514fcac71161019b57806363c69f081161016a57806363c69f08146103935780636daf0fbb146103c05780636f77926b146103e057806379109baa1461040d5780637acc0b201461042057600080fd5b8063514fcac71461031c57806352e33fb51461033c578063570aea8a14610369578063574fde971461037e57600080fd5b80633ab9bbb6116101d75780633ab9bbb61461028f5780633e9e27aa146102af57806346a4237b146102cf5780634da47d37146102fc57600080fd5b806302ee3a52146102095780631f16653b14610234578063338e12eb14610258578063375f16a71461027a575b600080fd5b34801561021557600080fd5b5061021e610760565b60405161022b9190612f7d565b60405180910390f35b34801561024057600080fd5b5061024a60015481565b60405190815260200161022b565b34801561026457600080fd5b50610278610273366004613082565b610a4c565b005b34801561028657600080fd5b5060025461024a565b34801561029b57600080fd5b506102786102aa3660046130d8565b610c5a565b3480156102bb57600080fd5b506102786102ca3660046130fa565b610e4f565b3480156102db57600080fd5b506102ef6102ea36600461314a565b61118c565b60405161022b9190613163565b34801561030857600080fd5b50610278610317366004613206565b6112c5565b34801561032857600080fd5b5061027861033736600461314a565b6113ff565b34801561034857600080fd5b5061035c6103573660046132c6565b611589565b60405161022b91906132e8565b34801561037557600080fd5b5060015461024a565b34801561038a57600080fd5b50610278611607565b34801561039f57600080fd5b506103b36103ae3660046132c6565b611683565b60405161022b9190613337565b3480156103cc57600080fd5b506102786103db36600461337b565b6116ef565b3480156103ec57600080fd5b506104006103fb3660046132c6565b611a19565b60405161022b9190613441565b61027861041b3660046130d8565b611b8b565b34801561042c57600080fd5b5061044061043b36600461314a565b612031565b60405161022b9c9b9a999897969594939291906134b9565b34801561046457600080fd5b5061046d612235565b60405161022b91906135cf565b34801561048657600080fd5b5061024a610495366004613612565b612387565b3480156104a657600080fd5b506104ba6104b5366004613612565b6123b8565b6040805192835260208301919091520161022b565b3480156104db57600080fd5b506105496104ea36600461314a565b6006602081905260009182526040909120805460018201546002830154600384015460048501546005860154968601546007870154600890970154959794966001600160a01b039485169693909416949193919260ff91821692911689565b60405161022b9998979695949392919061363c565b34801561056a57600080fd5b5061057e6105793660046132c6565b6123f4565b60405161022b979695949392919061369a565b34801561059d57600080fd5b506102786105ac3660046136f2565b6124c8565b3480156105bd57600080fd5b5061024a60025481565b3480156105d357600080fd5b506105e76105e236600461314a565b6125bf565b60405161022b919061371b565b34801561060057600080fd5b5061024a61060f366004613612565b612812565b34801561062057600080fd5b5061027861062f36600461314a565b61282e565b34801561064057600080fd5b5061027861064f36600461314a565b6128c3565b34801561066057600080fd5b5061067461066f36600461314a565b612a15565b60405161022b919061372e565b34801561068d57600080fd5b5061024a61069c3660046132c6565b612ad4565b3480156106ad57600080fd5b506103b36106bc3660046132c6565b612be2565b3480156106cd57600080fd5b5061024a6106dc366004613612565b612c4c565b3480156106ed57600080fd5b506107016106fc3660046130d8565b612c68565b60405161022b959493929190613743565b34801561071e57600080fd5b5061024a60035481565b34801561073457600080fd5b50600054610748906001600160a01b031681565b6040516001600160a01b03909116815260200161022b565b6060600060015467ffffffffffffffff81111561077f5761077f612fdf565b6040519080825280602002602001820160405280156107b857816020015b6107a5612d4a565b81526020019060019003908161079d5790505b50905060015b6001548111610a465760056000828152602001908152602001600020604051806101800160405290816000820154815260200160018201805461080090613782565b80601f016020809104026020016040519081016040528092919081815260200182805461082c90613782565b80156108795780601f1061084e57610100808354040283529160200191610879565b820191906000526020600020905b81548152906001019060200180831161085c57829003601f168201915b5050505050815260200160028201805461089290613782565b80601f01602080910402602001604051908101604052809291908181526020018280546108be90613782565b801561090b5780601f106108e05761010080835404028352916020019161090b565b820191906000526020600020905b8154815290600101906020018083116108ee57829003601f168201915b5050509183525050600382015460208201526004820154604082015260058201546001600160a01b0381166060830152600160a01b900460ff161515608082015260068201805460a09092019161096190613782565b80601f016020809104026020016040519081016040528092919081815260200182805461098d90613782565b80156109da5780601f106109af576101008083540402835291602001916109da565b820191906000526020600020905b8154815290600101906020018083116109bd57829003601f168201915b5050509183525050600782015460208201526008820154604082015260098201546060820152600a9091015460809091015282610a186001846137cc565b81518110610a2857610a286137df565b60200260200101819052508080610a3e906137f5565b9150506107be565b50919050565b33600090815260046020526040902060020154610100900460ff1615610ab95760405162461bcd60e51b815260206004820152601760248201527f5573657220616c7265616479207265676973746572656400000000000000000060448201526064015b60405180910390fd5b6002816002811115610acd57610acd613417565b03610b1a5760405162461bcd60e51b815260206004820152601860248201527f43616e6e6f742072656769737465722061732061646d696e00000000000000006044820152606401610ab0565b6040518060e00160405280336001600160a01b03168152602001838152602001826002811115610b4c57610b4c613417565b81526001602080830182905242604080850191909152600060608501819052608090940184905233845260048252909220835181546001600160a01b0319166001600160a01b039091161781559183015190820190610bab908261385d565b5060408201518160020160006101000a81548160ff02191690836002811115610bd657610bd6613417565b021790555060608201516002820180549115156101000261ff00199092169190911790556080820151600382015560a0820151600482015560c09091015160059091015560405133907fc2e5d5da58bd71d1a2d14cdef02a4256d971b728088f8190d067ccfbae3bd73e90610c4e908590859061391d565b60405180910390a25050565b33600090815260046020526040902060020154610100900460ff16610c915760405162461bcd60e51b8152600401610ab09061393f565b60008281526005602081905260409091200154600160a01b900460ff16610cef5760405162461bcd60e51b815260206004820152601260248201527150726f64756374206e6f742061637469766560701b6044820152606401610ab0565b60008111610d365760405162461bcd60e51b815260206004820152601460248201527305175616e74697479206d757374206265203e20360641b6044820152606401610ab0565b33600090815260096020526040812090805b8254811015610dcf5784838281548110610d6457610d646137df565b90600052602060002090600202016000015403610dbd5783838281548110610d8e57610d8e6137df565b90600052602060002090600202016001016000828254610dae919061396c565b9091555060019250610dcf9050565b80610dc7816137f5565b915050610d48565b5080610e0e5760408051808201909152848152602080820185815284546001818101875560008781529390932093516002909102909301928355519101555b604080518581526020810185905233917f5645efa0e9235341084154f794d6cab68cceb2608e1d5f4cea4ece1e90ce20be910160405180910390a250505050565b33600090815260046020526040902060020154610100900460ff16610e865760405162461bcd60e51b8152600401610ab09061393f565b6000838152600560205260408120549003610edc5760405162461bcd60e51b8152602060048201526016602482015275141c9bd91d58dd08191bd95cc81b9bdd08195e1a5cdd60521b6044820152606401610ab0565b600082118015610eed575060058211155b610f395760405162461bcd60e51b815260206004820152601e60248201527f526174696e67206d757374206265206265747765656e203120616e64203500006044820152606401610ab0565b6000815111610f8a5760405162461bcd60e51b815260206004820152601760248201527f436f6d6d656e742063616e6e6f7420626520656d7074790000000000000000006044820152606401610ab0565b6000805b336000908152600a602052604090205481101561100a57336000908152600a6020526040812080548792600692909185908110610fcd57610fcd6137df565b906000526020600020015481526020019081526020016000206001015403610ff8576001915061100a565b80611002816137f5565b915050610f8e565b508061106c5760405162461bcd60e51b815260206004820152602b60248201527f596f75206d75737420707572636861736520746869732070726f64756374207460448201526a1bc81c995d9a595dc81a5d60aa1b6064820152608401610ab0565b6000848152600b60209081526040808320815160a0810183528881523381850190815292810188815260608201888152426080840152835460018082018655948852959096208251600590960201948555925191840180546001600160a01b0319166001600160a01b039093169290921790915590516002830155915160038201906110f8908261385d565b50608091909101516004909101556000848152600560205260409020600981015460029061112790869061396c565b611131919061397f565b6009820155600a81018054906000611148836137f5565b9091555050604051848152339086907f2b9c3d5cf21860ed898980596d65b176ebaa1765f7f9a288a51aad4672ba1e75906020015b60405180910390a35050505050565b6060600b6000838152602001908152602001600020805480602002602001604051908101604052809291908181526020016000905b828210156112ba5760008481526020908190206040805160a081018252600586029092018054835260018101546001600160a01b03169383019390935260028301549082015260038201805491929160608401919061121f90613782565b80601f016020809104026020016040519081016040528092919081815260200182805461124b90613782565b80156112985780601f1061126d57610100808354040283529160200191611298565b820191906000526020600020905b81548152906001019060200180831161127b57829003601f168201915b50505050508152602001600482015481525050815260200190600101906111c1565b505050509050919050565b6000868152600560208190526040909120908101546001600160a01b031633146113315760405162461bcd60e51b815260206004820152601d60248201527f4f6e6c792070726f64756374206f776e65722063616e207570646174650000006044820152606401610ab0565b600084116113815760405162461bcd60e51b815260206004820152601c60248201527f5072696365206d7573742062652067726561746572207468616e2030000000006044820152606401610ab0565b6001810161138f878261385d565b506002810161139e868261385d565b506003810184905560048101839055600681016113bb838261385d565b50867ff9b1d9170fbe32752353e00d62e5276b143166c75aa974030dddfac2895601fe87866040516113ee9291906139a1565b60405180910390a250505050505050565b600081815260066020526040902060028101546001600160a01b031633148061143257506000546001600160a01b031633145b61146f5760405162461bcd60e51b815260206004820152600e60248201526d139bdd08185d5d1a1bdc9a5e995960921b6044820152606401610ab0565b6000600682015460ff16600481111561148a5761148a613417565b146114d75760405162461bcd60e51b815260206004820152601d60248201527f43616e6e6f742063616e63656c2064656c697665726564206f726465720000006044820152606401610ab0565b60068101805460ff19166004179055600281015460058201546040516001600160a01b03909216916108fc82150291906000818181858888f19350505050158015611526573d6000803e3d6000fd5b50806004015460056000836001015481526020019081526020016000206004016000828254611555919061396c565b909155505060405182907f61b9399f2f0f32ca39ce8d7be32caed5ec22fe07a6daba3a467ed479ec60658290600090a25050565b6001600160a01b0381166000908152600960209081526040808320805482518185028101850190935280835260609492939192909184015b828210156112ba578382906000526020600020906002020160405180604001604052908160008201548152602001600182015481525050815260200190600101906115c1565b33600090815260046020526040902060020154610100900460ff1661163e5760405162461bcd60e51b8152600401610ab09061393f565b33600090815260096020526040812061165691612db6565b60405133907fc65a75b7a288595a934865dd0ab8eb43ac6e4f41fa21ad52cae2f31b3a68bca290600090a2565b6001600160a01b0381166000908152600760209081526040918290208054835181840281018401909452808452606093928301828280156116e357602002820191906000526020600020905b8154815260200190600101908083116116cf575b50505050509050919050565b33600090815260046020526040902060020154610100900460ff166117265760405162461bcd60e51b8152600401610ab09061393f565b600133600090815260046020526040902060029081015460ff169081111561175057611750613417565b1480611781575033600090815260046020526040902060029081015460ff168181111561177f5761177f613417565b145b6117d95760405162461bcd60e51b8152602060048201526024808201527f4f6e6c792073656c6c6572732063616e20706572666f726d20746869732061636044820152633a34b7b760e11b6064820152608401610ab0565b600083116118295760405162461bcd60e51b815260206004820152601c60248201527f5072696365206d7573742062652067726561746572207468616e2030000000006044820152606401610ab0565b600082116118795760405162461bcd60e51b815260206004820152601c60248201527f53746f636b206d7573742062652067726561746572207468616e2030000000006044820152606401610ab0565b60018054906000611889836137f5565b909155505060408051610180810182526001805480835260208084018a81528486018a905260608501899052608085018890523360a086015260c0850184905260e08501879052426101008601526000610120860181905261014086018190526101608601819052928352600590915293902082518155925191929190820190611913908261385d565b5060408201516002820190611928908261385d565b50606082015160038201556080820151600482015560a082015160058201805460c08501511515600160a01b026001600160a81b03199091166001600160a01b039093169290921791909117905560e0820151600682019061198a908261385d565b506101008201516007820155610120820151600880830191909155610140830151600983015561016090920151600a909101553360008181526020928352604080822060018054825480830184559285529590932001939093555491519091907f52402cafb2ecec722b103e8f203f83362148c168659dc96678c2c6850d12dd9f9061117d90899088906139a1565b611a5b6040805160e081018252600080825260606020830152909182019081526020016000151581526020016000815260200160008152602001600081525090565b6001600160a01b03808316600090815260046020908152604091829020825160e081019093528054909316825260018301805492939291840191611a9e90613782565b80601f0160208091040260200160405190810160405280929190818152602001828054611aca90613782565b8015611b175780601f10611aec57610100808354040283529160200191611b17565b820191906000526020600020905b815481529060010190602001808311611afa57829003601f168201915b505050918352505060028281015460209092019160ff1690811115611b3e57611b3e613417565b6002811115611b4f57611b4f613417565b81526002820154610100900460ff1615156020820152600382015460408201526004820154606082015260059091015460809091015292915050565b33600090815260046020526040902060020154610100900460ff16611bc25760405162461bcd60e51b8152600401610ab09061393f565b6000828152600560208181526040808420338552600490925290922090820154600160a01b900460ff16611c305760405162461bcd60e51b815260206004820152601560248201527450726f64756374206973206e6f742061637469766560581b6044820152606401610ab0565b8282600401541015611c795760405162461bcd60e51b8152602060048201526012602482015271496e73756666696369656e742073746f636b60701b6044820152606401610ab0565b60008311611cc95760405162461bcd60e51b815260206004820152601f60248201527f5175616e74697479206d7573742062652067726561746572207468616e2030006044820152606401610ab0565b6000838360030154611cdb91906139c3565b905080341015611d245760405162461bcd60e51b8152602060048201526014602482015273125b9cdd59999a58da595b9d081c185e5b595b9d60621b6044820152606401610ab0565b83836004016000828254611d3891906137cc565b9250508190555083836008016000828254611d53919061396c565b909155505060028054906000611d68836137f5565b909155505060408051610120810182526002805480835260208084018a81523385870190815260058a8101546001600160a01b0390811660608901908152608089018e815260a08a018c8152600060c08c018181524260e08e01526101008d018290529981526006988990529b909b208a5181559551600180880191909155945198860180549984166001600160a01b03199a8b161790559051600386018054919093169816979097179055945160048084019190915596519482019490945591519082018054949592949193909260ff1992909216918490811115611e5057611e50613417565b021790555060e0820151600782810191909155610100909201516008909101805460ff191691151591909117905533600081815260209283526040808220600280548254600181810185559386528786200155938352600a855290822092548354918201845592825292812090920155600483018054839290611ed490849061396c565b90915550506005808401546001600160a01b031660009081526004602052604081209182018054849290611f0990849061396c565b909155505060058401546040516001600160a01b039091169083156108fc029084906000818181858888f19350505050158015611f4a573d6000803e3d6000fd5b5081341115611f8b57336108fc611f6184346137cc565b6040518115909202916000818181858888f19350505050158015611f89573d6000803e3d6000fd5b505b8160036000828254611f9d919061396c565b9091555050336000908152600960205260408120611fba91612db6565b600254604051868152339188917fab45dcf8e0b46d291b98e53c6f1c6774dc32e2436543291f7bfbb3e3c48b2f9f9060200160405180910390a460405182815233907f6ef95f06320e7a25a04a175ca677b7052bdd97131872c2192525a629f51be7709060200160405180910390a2505050505050565b6005602052600090815260409020805460018201805491929161205390613782565b80601f016020809104026020016040519081016040528092919081815260200182805461207f90613782565b80156120cc5780601f106120a1576101008083540402835291602001916120cc565b820191906000526020600020905b8154815290600101906020018083116120af57829003601f168201915b5050505050908060020180546120e190613782565b80601f016020809104026020016040519081016040528092919081815260200182805461210d90613782565b801561215a5780601f1061212f5761010080835404028352916020019161215a565b820191906000526020600020905b81548152906001019060200180831161213d57829003601f168201915b50505050600383015460048401546005850154600686018054959693959294506001600160a01b03821693600160a01b90920460ff169261219a90613782565b80601f01602080910402602001604051908101604052809291908181526020018280546121c690613782565b80156122135780601f106121e857610100808354040283529160200191612213565b820191906000526020600020905b8154815290600101906020018083116121f657829003601f168201915b50505050509080600701549080600801549080600901549080600a015490508c565b6060600060025467ffffffffffffffff81111561225457612254612fdf565b60405190808252806020026020018201604052801561228d57816020015b61227a612dda565b8152602001906001900390816122725790505b50905060015b6002548111610a46576000818152600660208181526040928390208351610120810185528154815260018201549281019290925260028101546001600160a01b0390811694830194909452600381015490931660608201526004808401546080830152600584015460a08301529183015490929160c084019160ff169081111561231f5761231f613417565b600481111561233057612330613417565b81526007820154602082015260089091015460ff161515604090910152826123596001846137cc565b81518110612369576123696137df565b6020026020010181905250808061237f906137f5565b915050612293565b600760205281600052604060002081815481106123a357600080fd5b90600052602060002001600091509150505481565b600960205281600052604060002081815481106123d457600080fd5b600091825260209091206002909102018054600190910154909250905082565b600460205260009081526040902080546001820180546001600160a01b03909216929161242090613782565b80601f016020809104026020016040519081016040528092919081815260200182805461244c90613782565b80156124995780601f1061246e57610100808354040283529160200191612499565b820191906000526020600020905b81548152906001019060200180831161247c57829003601f168201915b50505050600283015460038401546004850154600590950154939460ff80841695610100909404169350909187565b600082815260066020526040902060038101546001600160a01b03163314806124fb57506000546001600160a01b031633145b61255c5760405162461bcd60e51b815260206004820152602c60248201527f4f6e6c792073656c6c6572206f722061646d696e2063616e207570646174652060448201526b6f726465722073746174757360a01b6064820152608401610ab0565b60068101805483919060ff1916600183600481111561257d5761257d613417565b0217905550827fd9a86b644eb5f5b43cc8a700849852481080361c7a4b00ba646d1b46c5585f95836040516125b291906139da565b60405180910390a2505050565b6125c7612d4a565b60056000838152602001908152602001600020604051806101800160405290816000820154815260200160018201805461260090613782565b80601f016020809104026020016040519081016040528092919081815260200182805461262c90613782565b80156126795780601f1061264e57610100808354040283529160200191612679565b820191906000526020600020905b81548152906001019060200180831161265c57829003601f168201915b5050505050815260200160028201805461269290613782565b80601f01602080910402602001604051908101604052809291908181526020018280546126be90613782565b801561270b5780601f106126e05761010080835404028352916020019161270b565b820191906000526020600020905b8154815290600101906020018083116126ee57829003601f168201915b5050509183525050600382015460208201526004820154604082015260058201546001600160a01b0381166060830152600160a01b900460ff161515608082015260068201805460a09092019161276190613782565b80601f016020809104026020016040519081016040528092919081815260200182805461278d90613782565b80156127da5780601f106127af576101008083540402835291602001916127da565b820191906000526020600020905b8154815290600101906020018083116127bd57829003601f168201915b50505050508152602001600782015481526020016008820154815260200160098201548152602001600a820154815250509050919050565b600860205281600052604060002081815481106123a357600080fd5b6000818152600560208190526040909120908101546001600160a01b031633148061286357506000546001600160a01b031633145b6128a05760405162461bcd60e51b815260206004820152600e60248201526d139bdd08185d5d1a1bdc9a5e995960921b6044820152606401610ab0565b600501805460ff60a01b198116600160a01b9182900460ff161590910217905550565b33600090815260046020526040902060020154610100900460ff166128fa5760405162461bcd60e51b8152600401610ab09061393f565b336000908152600960205260408120905b81548110156129e25782828281548110612927576129276137df565b906000526020600020906002020160000154036129d0578154829061294e906001906137cc565b8154811061295e5761295e6137df565b906000526020600020906002020182828154811061297e5761297e6137df565b60009182526020909120825460029092020190815560019182015491015581548290806129ad576129ad6139e8565b6000828152602081206002600019909301928302018181556001015590556129e2565b806129da816137f5565b91505061290b565b5060405182815233907f1ff6fdafb329bc793bba0305f4e4b334bab99f154c261e62c190437c084ec55090602001610c4e565b612a1d612dda565b6000828152600660208181526040928390208351610120810185528154815260018201549281019290925260028101546001600160a01b0390811694830194909452600381015490931660608201526004808401546080830152600584015460a08301529183015490929160c084019160ff1690811115612aa057612aa0613417565b6004811115612ab157612ab1613417565b81526007820154602082015260089091015460ff16151560409091015292915050565b6001600160a01b038116600090815260096020908152604080832080548251818502810185019093528083528493849084015b82821015612b4d57838290600052602060002090600202016040518060400160405290816000820154815260200160018201548152505081526020019060010190612b07565b5050505090506000805b8251811015612bda57828181518110612b7257612b726137df565b60200260200101516020015160056000858481518110612b9457612b946137df565b602002602001015160000151815260200190815260200160002060030154612bbc91906139c3565b612bc6908361396c565b915080612bd2816137f5565b915050612b57565b509392505050565b6001600160a01b0381166000908152600860209081526040918290208054835181840281018401909452808452606093928301828280156116e357602002820191906000526020600020908154815260200190600101908083116116cf5750505050509050919050565b600a60205281600052604060002081815481106123a357600080fd5b600b6020528160005260406000208181548110612c8457600080fd5b600091825260209091206005909102018054600182015460028301546003840180549396506001600160a01b0390921694509291612cc190613782565b80601f0160208091040260200160405190810160405280929190818152602001828054612ced90613782565b8015612d3a5780601f10612d0f57610100808354040283529160200191612d3a565b820191906000526020600020905b815481529060010190602001808311612d1d57829003601f168201915b5050505050908060040154905085565b604051806101800160405280600081526020016060815260200160608152602001600081526020016000815260200160006001600160a01b0316815260200160001515815260200160608152602001600081526020016000815260200160008152602001600081525090565b5080546000825560020290600052602060002090810190612dd79190612e49565b50565b604051806101200160405280600081526020016000815260200160006001600160a01b0316815260200160006001600160a01b03168152602001600081526020016000815260200160006004811115612e3557612e35613417565b815260006020820181905260409091015290565b5b80821115612e645760008082556001820155600201612e4a565b5090565b6000815180845260005b81811015612e8e57602081850181015186830182015201612e72565b506000602082860101526020601f19601f83011685010191505092915050565b6000610180825184526020830151816020860152612ece82860182612e68565b91505060408301518482036040860152612ee88282612e68565b915050606083015160608501526080830151608085015260a0830151612f1960a08601826001600160a01b03169052565b5060c0830151612f2d60c086018215159052565b5060e083015184820360e0860152612f458282612e68565b610100858101519087015261012080860151908701526101408086015190870152610160948501519490950193909352509192915050565b6000602080830181845280855180835260408601915060408160051b870101925083870160005b82811015612fd257603f19888603018452612fc0858351612eae565b94509285019290850190600101612fa4565b5092979650505050505050565b634e487b7160e01b600052604160045260246000fd5b600082601f83011261300657600080fd5b813567ffffffffffffffff8082111561302157613021612fdf565b604051601f8301601f19908116603f0116810190828211818310171561304957613049612fdf565b8160405283815286602085880101111561306257600080fd5b836020870160208301376000602085830101528094505050505092915050565b6000806040838503121561309557600080fd5b823567ffffffffffffffff8111156130ac57600080fd5b6130b885828601612ff5565b9250506020830135600381106130cd57600080fd5b809150509250929050565b600080604083850312156130eb57600080fd5b50508035926020909101359150565b60008060006060848603121561310f57600080fd5b8335925060208401359150604084013567ffffffffffffffff81111561313457600080fd5b61314086828701612ff5565b9150509250925092565b60006020828403121561315c57600080fd5b5035919050565b60006020808301818452808551808352604092508286019150828160051b87010184880160005b838110156131f857888303603f19018552815180518452878101516001600160a01b031688850152868101518785015260608082015160a082870181905291906131d683880182612e68565b608094850151979094019690965250509487019492509086019060010161318a565b509098975050505050505050565b60008060008060008060c0878903121561321f57600080fd5b86359550602087013567ffffffffffffffff8082111561323e57600080fd5b61324a8a838b01612ff5565b9650604089013591508082111561326057600080fd5b61326c8a838b01612ff5565b9550606089013594506080890135935060a089013591508082111561329057600080fd5b5061329d89828a01612ff5565b9150509295509295509295565b80356001600160a01b03811681146132c157600080fd5b919050565b6000602082840312156132d857600080fd5b6132e1826132aa565b9392505050565b602080825282518282018190526000919060409081850190868401855b8281101561332a57815180518552860151868501529284019290850190600101613305565b5091979650505050505050565b6020808252825182820181905260009190848201906040850190845b8181101561336f57835183529284019291840191600101613353565b50909695505050505050565b600080600080600060a0868803121561339357600080fd5b853567ffffffffffffffff808211156133ab57600080fd5b6133b789838a01612ff5565b965060208801359150808211156133cd57600080fd5b6133d989838a01612ff5565b9550604088013594506060880135935060808801359150808211156133fd57600080fd5b5061340a88828901612ff5565b9150509295509295909350565b634e487b7160e01b600052602160045260246000fd5b6003811061343d5761343d613417565b9052565b602080825282516001600160a01b03168282015282015160e06040830152600090613470610100840182612e68565b90506040840151613484606085018261342d565b50606084015115156080840152608084015160a084015260a084015160c084015260c084015160e08401528091505092915050565b60006101808e83528060208401526134d38184018f612e68565b905082810360408401526134e7818e612e68565b606084018d9052608084018c90526001600160a01b038b1660a085015289151560c085015283810360e085015290506135208189612e68565b915050856101008301528461012083015283610140830152826101608301529d9c50505050505050505050505050565b6005811061343d5761343d613417565b8051825260208101516020830152604081015160018060a01b03808216604085015280606084015116606085015250506080810151608083015260a081015160a083015260c08101516135b660c0840182613550565b5060e08181015190830152610100908101511515910152565b6020808252825182820181905260009190848201906040850190845b8181101561336f576135fe838551613560565b9284019261012092909201916001016135eb565b6000806040838503121561362557600080fd5b61362e836132aa565b946020939093013593505050565b898152602081018990526001600160a01b038881166040830152871660608201526080810186905260a08101859052610120810161367d60c0830186613550565b8360e08301528215156101008301529a9950505050505050505050565b6001600160a01b038816815260e0602082018190526000906136be90830189612e68565b90506136cd604083018861342d565b9415156060820152608081019390935260a083019190915260c0909101529392505050565b6000806040838503121561370557600080fd5b823591506020830135600581106130cd57600080fd5b6020815260006132e16020830184612eae565b610120810161373d8284613560565b92915050565b85815260018060a01b038516602082015283604082015260a06060820152600061377060a0830185612e68565b90508260808301529695505050505050565b600181811c9082168061379657607f821691505b602082108103610a4657634e487b7160e01b600052602260045260246000fd5b634e487b7160e01b600052601160045260246000fd5b8181038181111561373d5761373d6137b6565b634e487b7160e01b600052603260045260246000fd5b600060018201613807576138076137b6565b5060010190565b601f82111561385857600081815260208120601f850160051c810160208610156138355750805b601f850160051c820191505b8181101561385457828155600101613841565b5050505b505050565b815167ffffffffffffffff81111561387757613877612fdf565b61388b816138858454613782565b8461380e565b602080601f8311600181146138c057600084156138a85750858301515b600019600386901b1c1916600185901b178555613854565b600085815260208120601f198616915b828110156138ef578886015182559484019460019091019084016138d0565b508582101561390d5787850151600019600388901b60f8161c191681555b5050505050600190811b01905550565b6040815260006139306040830185612e68565b90506132e1602083018461342d565b602080825260139082015272155cd95c881b9bdd081c9959da5cdd195c9959606a1b604082015260600190565b8082018082111561373d5761373d6137b6565b60008261399c57634e487b7160e01b600052601260045260246000fd5b500490565b6040815260006139b46040830185612e68565b90508260208301529392505050565b808202811582820484141761373d5761373d6137b6565b6020810161373d8284613550565b634e487b7160e01b600052603160045260246000fdfea2646970667358221220a82413120bae5168fea9adf1f321c419d6d917f93fbdc14ec3335e602167bb7864736f6c6343000813003341707072656e64726520536f6c6964697479206574206c6120626c6f636b636861696e",
  "immutableReferences": {},
  "source": "// SPDX-License-Identifier: MIT\r\npragma solidity ^0.8.19;\r\n\r\ncontract EcommerceStore {\r\n    \r\n    // Structures\r\n    struct User {\r\n        address userAddress;\r\n        string name;\r\n        UserRole role;\r\n        bool isRegistered;\r\n        uint256 createdAt;\r\n        uint256 totalPurchases;\r\n        uint256 totalEarnings;\r\n    }\r\n    \r\n    struct Product {\r\n        uint256 id;\r\n        string name;\r\n        string description;\r\n        uint256 price;\r\n        uint256 stock;\r\n        address payable seller;\r\n        bool isActive;\r\n        string imageUrl;\r\n        uint256 createdAt;\r\n        uint256 totalSales;\r\n        uint256 rating;\r\n        uint256 totalReviews;\r\n    }\r\n    \r\n    struct Order {\r\n        uint256 id;\r\n        uint256 productId;\r\n        address buyer;\r\n        address seller;\r\n        uint256 quantity;\r\n        uint256 totalPrice;\r\n        OrderStatus status;\r\n        uint256 timestamp;\r\n        bool isReviewed;\r\n    }\r\n    \r\n    struct CartItem {\r\n        uint256 productId;\r\n        uint256 quantity;\r\n    }\r\n    \r\n    struct Review {\r\n        uint256 productId;\r\n        address reviewer;\r\n        uint256 rating;\r\n        string comment;\r\n        uint256 timestamp;\r\n    }\r\n    \r\n    // Enums\r\n    enum UserRole { Client, Seller, Admin }\r\n    enum OrderStatus { Pending, Confirmed, Shipped, Delivered, Cancelled }\r\n    \r\n    // State variables\r\n    address public admin;\r\n    uint256 public productCounter;\r\n    uint256 public orderCounter;\r\n    uint256 public totalTransactionVolume;\r\n    \r\n    mapping(address => User) public users;\r\n    mapping(uint256 => Product) public products;\r\n    mapping(uint256 => Order) public orders;\r\n    mapping(address => uint256[]) public userOrders;\r\n    mapping(address => uint256[]) public sellerProducts;\r\n    mapping(address => CartItem[]) public userCart;\r\n    mapping(address => uint256[]) public userPurchaseHistory;\r\n    mapping(uint256 => Review[]) public productReviews;\r\n    \r\n    // Events\r\n    event UserRegistered(address indexed userAddress, string name, UserRole role);\r\n    event ProductAdded(uint256 indexed productId, string name, uint256 price, address indexed seller);\r\n    event ProductUpdated(uint256 indexed productId, string name, uint256 price);\r\n    event OrderCreated(uint256 indexed orderId, uint256 indexed productId, address indexed buyer, uint256 quantity);\r\n    event OrderStatusUpdated(uint256 indexed orderId, OrderStatus status);\r\n    event PaymentReceived(address indexed from, uint256 amount);\r\n    event CartItemAdded(address indexed user, uint256 productId, uint256 quantity);\r\n    event CartItemRemoved(address indexed user, uint256 productId);\r\n    event CartCleared(address indexed user);\r\n    event ReviewAdded(uint256 indexed productId, address indexed reviewer, uint256 rating);\r\n    event OrderCancelled(uint256 indexed orderId);\r\n    \r\n    // Modifiers\r\n    modifier onlyAdmin() {\r\n        require(msg.sender == admin, \"Only admin can perform this action\");\r\n        _;\r\n    }\r\n    \r\n    modifier onlyRegistered() {\r\n        require(users[msg.sender].isRegistered, \"User not registered\");\r\n        _;\r\n    }\r\n    \r\n    modifier onlySeller() {\r\n        require(users[msg.sender].role == UserRole.Seller || users[msg.sender].role == UserRole.Admin, \"Only sellers can perform this action\");\r\n        _;\r\n    }\r\n    \r\n    constructor() {\r\n        admin = msg.sender;\r\n        users[admin] = User(admin, \"Admin\", UserRole.Admin, true, block.timestamp, 0, 0);\r\n        \r\n        // Ajout d'un produit initial\r\n        productCounter++;\r\n        products[productCounter] = Product(\r\n            productCounter,\r\n            \"Livre Blockchain\",\r\n            \"Apprendre Solidity et la blockchain\",\r\n            0.1 ether,\r\n            100,\r\n            payable(admin),\r\n            true,\r\n            \"https://via.placeholder.com/150\",\r\n            block.timestamp,\r\n            0,\r\n            0,\r\n            0\r\n        );\r\n        sellerProducts[admin].push(productCounter);\r\n    }\r\n    \r\n    // User Management\r\n    function registerUser(string memory _name, UserRole _role) public {\r\n        require(!users[msg.sender].isRegistered, \"User already registered\");\r\n        require(_role != UserRole.Admin, \"Cannot register as admin\");\r\n        \r\n        users[msg.sender] = User(\r\n            msg.sender,\r\n            _name,\r\n            _role,\r\n            true,\r\n            block.timestamp,\r\n            0,\r\n            0\r\n        );\r\n        emit UserRegistered(msg.sender, _name, _role);\r\n    }\r\n    \r\n    function getUser(address _userAddress) public view returns (User memory) {\r\n        return users[_userAddress];\r\n    }\r\n    \r\n    // Product Management\r\n    function addProduct(\r\n        string memory _name,\r\n        string memory _description,\r\n        uint256 _price,\r\n        uint256 _stock,\r\n        string memory _imageUrl\r\n    ) public onlyRegistered onlySeller {\r\n        require(_price > 0, \"Price must be greater than 0\");\r\n        require(_stock > 0, \"Stock must be greater than 0\");\r\n        \r\n        productCounter++;\r\n        products[productCounter] = Product(\r\n            productCounter,\r\n            _name,\r\n            _description,\r\n            _price,\r\n            _stock,\r\n            payable(msg.sender),\r\n            true,\r\n            _imageUrl,\r\n            block.timestamp,\r\n            0,\r\n            0,\r\n            0\r\n        );\r\n        \r\n        sellerProducts[msg.sender].push(productCounter);\r\n        emit ProductAdded(productCounter, _name, _price, msg.sender);\r\n    }\r\n    \r\n    function updateProduct(\r\n        uint256 _productId,\r\n        string memory _name,\r\n        string memory _description,\r\n        uint256 _price,\r\n        uint256 _stock,\r\n        string memory _imageUrl\r\n    ) public {\r\n        Product storage product = products[_productId];\r\n        require(product.seller == msg.sender, \"Only product owner can update\");\r\n        require(_price > 0, \"Price must be greater than 0\");\r\n        \r\n        product.name = _name;\r\n        product.description = _description;\r\n        product.price = _price;\r\n        product.stock = _stock;\r\n        product.imageUrl = _imageUrl;\r\n        \r\n        emit ProductUpdated(_productId, _name, _price);\r\n    }\r\n    \r\n    function toggleProductStatus(uint256 _productId) public {\r\n        Product storage product = products[_productId];\r\n        require(product.seller == msg.sender || msg.sender == admin, \"Not authorized\");\r\n        \r\n        product.isActive = !product.isActive;\r\n    }\r\n    \r\n    function getProduct(uint256 _productId) public view returns (Product memory) {\r\n        return products[_productId];\r\n    }\r\n    \r\n    function getAllProducts() public view returns (Product[] memory) {\r\n        Product[] memory allProducts = new Product[](productCounter);\r\n        for (uint256 i = 1; i <= productCounter; i++) {\r\n            allProducts[i - 1] = products[i];\r\n        }\r\n        return allProducts;\r\n    }\r\n    \r\n    function getSellerProducts(address _seller) public view returns (uint256[] memory) {\r\n        return sellerProducts[_seller];\r\n    }\r\n    \r\n    // Order Management\r\n    function createOrder(uint256 _productId, uint256 _quantity) public payable onlyRegistered {\r\n        Product storage product = products[_productId];\r\n        User storage user = users[msg.sender];\r\n        \r\n        require(product.isActive, \"Product is not active\");\r\n        require(product.stock >= _quantity, \"Insufficient stock\");\r\n        require(_quantity > 0, \"Quantity must be greater than 0\");\r\n        \r\n        uint256 totalPrice = product.price * _quantity;\r\n        require(msg.value >= totalPrice, \"Insufficient payment\");\r\n        \r\n        // Update stock\r\n        product.stock -= _quantity;\r\n        product.totalSales += _quantity;\r\n        \r\n        // Create order\r\n        orderCounter++;\r\n        orders[orderCounter] = Order(\r\n            orderCounter,\r\n            _productId,\r\n            msg.sender,\r\n            product.seller,\r\n            _quantity,\r\n            totalPrice,\r\n            OrderStatus.Pending,\r\n            block.timestamp,\r\n            false\r\n        );\r\n        \r\n        userOrders[msg.sender].push(orderCounter);\r\n        userPurchaseHistory[msg.sender].push(orderCounter);\r\n        user.totalPurchases += totalPrice;\r\n        \r\n        // Update seller earnings\r\n        User storage seller = users[product.seller];\r\n        seller.totalEarnings += totalPrice;\r\n        \r\n        // Transfer payment to seller\r\n        product.seller.transfer(totalPrice);\r\n        \r\n        // Refund excess payment\r\n        if (msg.value > totalPrice) {\r\n            payable(msg.sender).transfer(msg.value - totalPrice);\r\n        }\r\n        \r\n        totalTransactionVolume += totalPrice;\r\n        \r\n        // Clear cart\r\n        delete userCart[msg.sender];\r\n        \r\n        emit OrderCreated(orderCounter, _productId, msg.sender, _quantity);\r\n        emit PaymentReceived(msg.sender, totalPrice);\r\n    }\r\n    \r\n    function updateOrderStatus(uint256 _orderId, OrderStatus _status) public {\r\n        Order storage order = orders[_orderId];\r\n        require(\r\n            order.seller == msg.sender || msg.sender == admin,\r\n            \"Only seller or admin can update order status\"\r\n        );\r\n        \r\n        order.status = _status;\r\n        emit OrderStatusUpdated(_orderId, _status);\r\n    }\r\n    \r\n    function getOrder(uint256 _orderId) public view returns (Order memory) {\r\n        return orders[_orderId];\r\n    }\r\n    \r\n    function getUserOrders(address _user) public view returns (uint256[] memory) {\r\n        return userOrders[_user];\r\n    }\r\n    \r\n    function getAllOrders() public view returns (Order[] memory) {\r\n        Order[] memory allOrders = new Order[](orderCounter);\r\n        for (uint256 i = 1; i <= orderCounter; i++) {\r\n            allOrders[i - 1] = orders[i];\r\n        }\r\n        return allOrders;\r\n    }\r\n    \r\n    // Statistics\r\n    function getTotalProducts() public view returns (uint256) {\r\n        return productCounter;\r\n    }\r\n    \r\n    function getTotalOrders() public view returns (uint256) {\r\n        return orderCounter;\r\n    }\r\n    \r\n    // Cart Management\r\n    function addToCart(uint256 _productId, uint256 _quantity) public onlyRegistered {\r\n        require(products[_productId].isActive, \"Product not active\");\r\n        require(_quantity > 0, \"Quantity must be > 0\");\r\n        \r\n        CartItem[] storage cart = userCart[msg.sender];\r\n        bool found = false;\r\n        \r\n        for (uint i = 0; i < cart.length; i++) {\r\n            if (cart[i].productId == _productId) {\r\n                cart[i].quantity += _quantity;\r\n                found = true;\r\n                break;\r\n            }\r\n        }\r\n        \r\n        if (!found) {\r\n            cart.push(CartItem(_productId, _quantity));\r\n        }\r\n        \r\n        emit CartItemAdded(msg.sender, _productId, _quantity);\r\n    }\r\n    \r\n    function removeFromCart(uint256 _productId) public onlyRegistered {\r\n        CartItem[] storage cart = userCart[msg.sender];\r\n        \r\n        for (uint i = 0; i < cart.length; i++) {\r\n            if (cart[i].productId == _productId) {\r\n                cart[i] = cart[cart.length - 1];\r\n                cart.pop();\r\n                break;\r\n            }\r\n        }\r\n        \r\n        emit CartItemRemoved(msg.sender, _productId);\r\n    }\r\n    \r\n    function getCart(address _user) public view returns (CartItem[] memory) {\r\n        return userCart[_user];\r\n    }\r\n    \r\n    function clearCart() public onlyRegistered {\r\n        delete userCart[msg.sender];\r\n        emit CartCleared(msg.sender);\r\n    }\r\n    \r\n    function getCartTotal(address _user) public view returns (uint256) {\r\n        CartItem[] memory cart = userCart[_user];\r\n        uint256 total = 0;\r\n        \r\n        for (uint i = 0; i < cart.length; i++) {\r\n            total += products[cart[i].productId].price * cart[i].quantity;\r\n        }\r\n        \r\n        return total;\r\n    }\r\n    \r\n    // Review Management\r\n    function addReview(uint256 _productId, uint256 _rating, string memory _comment) public onlyRegistered {\r\n        require(products[_productId].id != 0, \"Product does not exist\");\r\n        require(_rating > 0 && _rating <= 5, \"Rating must be between 1 and 5\");\r\n        require(bytes(_comment).length > 0, \"Comment cannot be empty\");\r\n        \r\n        // Check if user bought this product\r\n        bool hasPurchased = false;\r\n        for (uint i = 0; i < userPurchaseHistory[msg.sender].length; i++) {\r\n            if (orders[userPurchaseHistory[msg.sender][i]].productId == _productId) {\r\n                hasPurchased = true;\r\n                break;\r\n            }\r\n        }\r\n        require(hasPurchased, \"You must purchase this product to review it\");\r\n        \r\n        productReviews[_productId].push(Review(_productId, msg.sender, _rating, _comment, block.timestamp));\r\n        \r\n        Product storage product = products[_productId];\r\n        product.rating = (product.rating + _rating) / 2;\r\n        product.totalReviews++;\r\n        \r\n        emit ReviewAdded(_productId, msg.sender, _rating);\r\n    }\r\n    \r\n    function getProductReviews(uint256 _productId) public view returns (Review[] memory) {\r\n        return productReviews[_productId];\r\n    }\r\n    \r\n    function cancelOrder(uint256 _orderId) public {\r\n        Order storage order = orders[_orderId];\r\n        require(order.buyer == msg.sender || msg.sender == admin, \"Not authorized\");\r\n        require(order.status == OrderStatus.Pending, \"Cannot cancel delivered order\");\r\n        \r\n        order.status = OrderStatus.Cancelled;\r\n        \r\n        // Refund buyer\r\n        payable(order.buyer).transfer(order.totalPrice);\r\n        \r\n        // Restore stock\r\n        products[order.productId].stock += order.quantity;\r\n        \r\n        emit OrderCancelled(_orderId);\r\n    }\r\n}",
  "sourcePath": "C:\\Users\\hp\\Desktop\\3A\\BlockChain\\plateformeEcommerce\\ecommerce\\contracts\\EcommerceStore.sol",
  "compiler": {
    "name": "solc",
    "version": "0.8.19+commit.7dd6d404.Emscripten.clang"
  },
  "schemaVersion": "3.4.16",
  "updatedAt": "2026-01-21T11:28:58.663Z",
  "networkType": "ethereum",
  "devdoc": {
    "kind": "dev",
    "methods": {},
    "version": 1
  },
  "userdoc": {
    "kind": "user",
    "methods": {},
    "version": 1
  }
}